{
  "_format": "hh-sol-artifact-1",
  "contractName": "Rollup",
  "sourceName": "arb-bridge-eth/contracts/rollup/Rollup.sol",
  "abi": [
    {
      "inputs": [
        {
          "internalType": "uint256",
          "name": "_confirmPeriodBlocks",
          "type": "uint256"
        }
      ],
      "stateMutability": "nonpayable",
      "type": "constructor"
    },
    {
      "anonymous": false,
      "inputs": [
        {
          "indexed": true,
          "internalType": "uint256",
          "name": "nodeNum",
          "type": "uint256"
        },
        {
          "indexed": false,
          "internalType": "bytes32",
          "name": "afterSendAcc",
          "type": "bytes32"
        },
        {
          "indexed": false,
          "internalType": "uint256",
          "name": "afterSendCount",
          "type": "uint256"
        },
        {
          "indexed": false,
          "internalType": "bytes32",
          "name": "afterLogAcc",
          "type": "bytes32"
        },
        {
          "indexed": false,
          "internalType": "uint256",
          "name": "afterLogCount",
          "type": "uint256"
        }
      ],
      "name": "NodeConfirmed",
      "type": "event"
    },
    {
      "anonymous": false,
      "inputs": [
        {
          "indexed": true,
          "internalType": "uint256",
          "name": "nodeNum",
          "type": "uint256"
        },
        {
          "indexed": true,
          "internalType": "bytes32",
          "name": "parentNodeHash",
          "type": "bytes32"
        },
        {
          "indexed": false,
          "internalType": "bytes32",
          "name": "nodeHash",
          "type": "bytes32"
        },
        {
          "indexed": false,
          "internalType": "bytes32",
          "name": "executionHash",
          "type": "bytes32"
        },
        {
          "indexed": false,
          "internalType": "uint256",
          "name": "inboxMaxCount",
          "type": "uint256"
        },
        {
          "indexed": false,
          "internalType": "uint256",
          "name": "afterInboxBatchEndCount",
          "type": "uint256"
        },
        {
          "indexed": false,
          "internalType": "bytes32",
          "name": "afterInboxBatchAcc",
          "type": "bytes32"
        },
        {
          "indexed": false,
          "internalType": "bytes32[3][2]",
          "name": "assertionBytes32Fields",
          "type": "bytes32[3][2]"
        },
        {
          "indexed": false,
          "internalType": "uint256[4][2]",
          "name": "assertionIntFields",
          "type": "uint256[4][2]"
        }
      ],
      "name": "NodeCreated",
      "type": "event"
    },
    {
      "anonymous": false,
      "inputs": [
        {
          "indexed": true,
          "internalType": "uint256",
          "name": "nodeNum",
          "type": "uint256"
        }
      ],
      "name": "NodeRejected",
      "type": "event"
    },
    {
      "anonymous": false,
      "inputs": [
        {
          "indexed": false,
          "internalType": "address",
          "name": "account",
          "type": "address"
        }
      ],
      "name": "Paused",
      "type": "event"
    },
    {
      "anonymous": false,
      "inputs": [
        {
          "indexed": true,
          "internalType": "address",
          "name": "challengeContract",
          "type": "address"
        },
        {
          "indexed": false,
          "internalType": "address",
          "name": "asserter",
          "type": "address"
        },
        {
          "indexed": false,
          "internalType": "address",
          "name": "challenger",
          "type": "address"
        },
        {
          "indexed": false,
          "internalType": "uint256",
          "name": "challengedNode",
          "type": "uint256"
        }
      ],
      "name": "RollupChallengeStarted",
      "type": "event"
    },
    {
      "anonymous": false,
      "inputs": [
        {
          "indexed": false,
          "internalType": "bytes32",
          "name": "machineHash",
          "type": "bytes32"
        }
      ],
      "name": "RollupCreated",
      "type": "event"
    },
    {
      "anonymous": false,
      "inputs": [
        {
          "indexed": false,
          "internalType": "address",
          "name": "account",
          "type": "address"
        }
      ],
      "name": "Unpaused",
      "type": "event"
    },
    {
      "anonymous": false,
      "inputs": [
        {
          "indexed": true,
          "internalType": "address",
          "name": "user",
          "type": "address"
        },
        {
          "indexed": false,
          "internalType": "uint256",
          "name": "initialBalance",
          "type": "uint256"
        },
        {
          "indexed": false,
          "internalType": "uint256",
          "name": "finalBalance",
          "type": "uint256"
        }
      ],
      "name": "UserStakeUpdated",
      "type": "event"
    },
    {
      "anonymous": false,
      "inputs": [
        {
          "indexed": true,
          "internalType": "address",
          "name": "user",
          "type": "address"
        },
        {
          "indexed": false,
          "internalType": "uint256",
          "name": "initialBalance",
          "type": "uint256"
        },
        {
          "indexed": false,
          "internalType": "uint256",
          "name": "finalBalance",
          "type": "uint256"
        }
      ],
      "name": "UserWithdrawableFundsUpdated",
      "type": "event"
    },
    {
      "stateMutability": "payable",
      "type": "fallback"
    },
    {
      "inputs": [],
      "name": "STORAGE_GAP_1",
      "outputs": [
        {
          "internalType": "uint256",
          "name": "",
          "type": "uint256"
        }
      ],
      "stateMutability": "view",
      "type": "function"
    },
    {
      "inputs": [],
      "name": "STORAGE_GAP_2",
      "outputs": [
        {
          "internalType": "uint256",
          "name": "",
          "type": "uint256"
        }
      ],
      "stateMutability": "view",
      "type": "function"
    },
    {
      "inputs": [
        {
          "internalType": "address",
          "name": "",
          "type": "address"
        }
      ],
      "name": "_stakerMap",
      "outputs": [
        {
          "internalType": "uint256",
          "name": "index",
          "type": "uint256"
        },
        {
          "internalType": "uint256",
          "name": "latestStakedNode",
          "type": "uint256"
        },
        {
          "internalType": "uint256",
          "name": "amountStaked",
          "type": "uint256"
        },
        {
          "internalType": "address",
          "name": "currentChallenge",
          "type": "address"
        },
        {
          "internalType": "bool",
          "name": "isStaked",
          "type": "bool"
        }
      ],
      "stateMutability": "view",
      "type": "function"
    },
    {
      "inputs": [
        {
          "internalType": "address",
          "name": "staker",
          "type": "address"
        }
      ],
      "name": "amountStaked",
      "outputs": [
        {
          "internalType": "uint256",
          "name": "",
          "type": "uint256"
        }
      ],
      "stateMutability": "view",
      "type": "function"
    },
    {
      "inputs": [],
      "name": "arbGasSpeedLimitPerBlock",
      "outputs": [
        {
          "internalType": "uint256",
          "name": "",
          "type": "uint256"
        }
      ],
      "stateMutability": "view",
      "type": "function"
    },
    {
      "inputs": [],
      "name": "avmGasSpeedLimitPerBlock",
      "outputs": [
        {
          "internalType": "uint256",
          "name": "",
          "type": "uint256"
        }
      ],
      "stateMutability": "view",
      "type": "function"
    },
    {
      "inputs": [],
      "name": "baseStake",
      "outputs": [
        {
          "internalType": "uint256",
          "name": "",
          "type": "uint256"
        }
      ],
      "stateMutability": "view",
      "type": "function"
    },
    {
      "inputs": [],
      "name": "challengeExecutionBisectionDegree",
      "outputs": [
        {
          "internalType": "uint256",
          "name": "",
          "type": "uint256"
        }
      ],
      "stateMutability": "view",
      "type": "function"
    },
    {
      "inputs": [],
      "name": "challengeFactory",
      "outputs": [
        {
          "internalType": "contract IChallengeFactory",
          "name": "",
          "type": "address"
        }
      ],
      "stateMutability": "view",
      "type": "function"
    },
    {
      "inputs": [],
      "name": "confirmPeriodBlocks",
      "outputs": [
        {
          "internalType": "uint256",
          "name": "",
          "type": "uint256"
        }
      ],
      "stateMutability": "view",
      "type": "function"
    },
    {
      "inputs": [
        {
          "internalType": "address",
          "name": "staker",
          "type": "address"
        }
      ],
      "name": "currentChallenge",
      "outputs": [
        {
          "internalType": "address",
          "name": "",
          "type": "address"
        }
      ],
      "stateMutability": "view",
      "type": "function"
    },
    {
      "inputs": [],
      "name": "delayedBridge",
      "outputs": [
        {
          "internalType": "contract IBridge",
          "name": "",
          "type": "address"
        }
      ],
      "stateMutability": "view",
      "type": "function"
    },
    {
      "inputs": [],
      "name": "extraChallengeTimeBlocks",
      "outputs": [
        {
          "internalType": "uint256",
          "name": "",
          "type": "uint256"
        }
      ],
      "stateMutability": "view",
      "type": "function"
    },
    {
      "inputs": [],
      "name": "firstUnresolvedNode",
      "outputs": [
        {
          "internalType": "uint256",
          "name": "",
          "type": "uint256"
        }
      ],
      "stateMutability": "view",
      "type": "function"
    },
    {
      "inputs": [],
      "name": "getAdminFacet",
      "outputs": [
        {
          "internalType": "address",
          "name": "",
          "type": "address"
        }
      ],
      "stateMutability": "view",
      "type": "function"
    },
    {
      "inputs": [],
      "name": "getFacets",
      "outputs": [
        {
          "internalType": "address",
          "name": "",
          "type": "address"
        },
        {
          "internalType": "address",
          "name": "",
          "type": "address"
        }
      ],
      "stateMutability": "view",
      "type": "function"
    },
    {
      "inputs": [
        {
          "internalType": "uint256",
          "name": "nodeNum",
          "type": "uint256"
        }
      ],
      "name": "getNode",
      "outputs": [
        {
          "internalType": "contract INode",
          "name": "",
          "type": "address"
        }
      ],
      "stateMutability": "view",
      "type": "function"
    },
    {
      "inputs": [
        {
          "internalType": "uint256",
          "name": "index",
          "type": "uint256"
        }
      ],
      "name": "getNodeHash",
      "outputs": [
        {
          "internalType": "bytes32",
          "name": "",
          "type": "bytes32"
        }
      ],
      "stateMutability": "view",
      "type": "function"
    },
    {
      "inputs": [
        {
          "internalType": "uint256",
          "name": "stakerNum",
          "type": "uint256"
        }
      ],
      "name": "getStakerAddress",
      "outputs": [
        {
          "internalType": "address",
          "name": "",
          "type": "address"
        }
      ],
      "stateMutability": "view",
      "type": "function"
    },
    {
      "inputs": [],
      "name": "getUserFacet",
      "outputs": [
        {
          "internalType": "address",
          "name": "",
          "type": "address"
        }
      ],
      "stateMutability": "view",
      "type": "function"
    },
    {
      "inputs": [
        {
          "internalType": "bytes32",
          "name": "_machineHash",
          "type": "bytes32"
        },
        {
          "internalType": "uint256[4]",
          "name": "_rollupParams",
          "type": "uint256[4]"
        },
        {
          "internalType": "address",
          "name": "_stakeToken",
          "type": "address"
        },
        {
          "internalType": "address",
          "name": "_owner",
          "type": "address"
        },
        {
          "internalType": "bytes",
          "name": "_extraConfig",
          "type": "bytes"
        },
        {
          "internalType": "address[6]",
          "name": "connectedContracts",
          "type": "address[6]"
        },
        {
          "internalType": "address[2]",
          "name": "_facets",
          "type": "address[2]"
        },
        {
          "internalType": "uint256[2]",
          "name": "sequencerInboxParams",
          "type": "uint256[2]"
        }
      ],
      "name": "initialize",
      "outputs": [],
      "stateMutability": "nonpayable",
      "type": "function"
    },
    {
      "inputs": [],
      "name": "isMaster",
      "outputs": [
        {
          "internalType": "bool",
          "name": "",
          "type": "bool"
        }
      ],
      "stateMutability": "view",
      "type": "function"
    },
    {
      "inputs": [
        {
          "internalType": "address",
          "name": "staker",
          "type": "address"
        }
      ],
      "name": "isStaked",
      "outputs": [
        {
          "internalType": "bool",
          "name": "",
          "type": "bool"
        }
      ],
      "stateMutability": "view",
      "type": "function"
    },
    {
      "inputs": [
        {
          "internalType": "address",
          "name": "staker",
          "type": "address"
        }
      ],
      "name": "isZombie",
      "outputs": [
        {
          "internalType": "bool",
          "name": "",
          "type": "bool"
        }
      ],
      "stateMutability": "view",
      "type": "function"
    },
    {
      "inputs": [],
      "name": "lastStakeBlock",
      "outputs": [
        {
          "internalType": "uint256",
          "name": "",
          "type": "uint256"
        }
      ],
      "stateMutability": "view",
      "type": "function"
    },
    {
      "inputs": [],
      "name": "latestConfirmed",
      "outputs": [
        {
          "internalType": "uint256",
          "name": "",
          "type": "uint256"
        }
      ],
      "stateMutability": "view",
      "type": "function"
    },
    {
      "inputs": [],
      "name": "latestNodeCreated",
      "outputs": [
        {
          "internalType": "uint256",
          "name": "",
          "type": "uint256"
        }
      ],
      "stateMutability": "view",
      "type": "function"
    },
    {
      "inputs": [
        {
          "internalType": "address",
          "name": "staker",
          "type": "address"
        }
      ],
      "name": "latestStakedNode",
      "outputs": [
        {
          "internalType": "uint256",
          "name": "",
          "type": "uint256"
        }
      ],
      "stateMutability": "view",
      "type": "function"
    },
    {
      "inputs": [],
      "name": "minimumAssertionPeriod",
      "outputs": [
        {
          "internalType": "uint256",
          "name": "",
          "type": "uint256"
        }
      ],
      "stateMutability": "view",
      "type": "function"
    },
    {
      "inputs": [],
      "name": "nodeFactory",
      "outputs": [
        {
          "internalType": "contract INodeFactory",
          "name": "",
          "type": "address"
        }
      ],
      "stateMutability": "view",
      "type": "function"
    },
    {
      "inputs": [],
      "name": "outbox",
      "outputs": [
        {
          "internalType": "contract IOutbox",
          "name": "",
          "type": "address"
        }
      ],
      "stateMutability": "view",
      "type": "function"
    },
    {
      "inputs": [],
      "name": "owner",
      "outputs": [
        {
          "internalType": "address",
          "name": "",
          "type": "address"
        }
      ],
      "stateMutability": "view",
      "type": "function"
    },
    {
      "inputs": [],
      "name": "paused",
      "outputs": [
        {
          "internalType": "bool",
          "name": "",
          "type": "bool"
        }
      ],
      "stateMutability": "view",
      "type": "function"
    },
    {
      "inputs": [],
      "name": "postUpgradeInit",
      "outputs": [],
      "stateMutability": "nonpayable",
      "type": "function"
    },
    {
      "inputs": [],
      "name": "rollupEventBridge",
      "outputs": [
        {
          "internalType": "contract RollupEventBridge",
          "name": "",
          "type": "address"
        }
      ],
      "stateMutability": "view",
      "type": "function"
    },
    {
      "inputs": [],
      "name": "sequencerBridge",
      "outputs": [
        {
          "internalType": "contract ISequencerInbox",
          "name": "",
          "type": "address"
        }
      ],
      "stateMutability": "view",
      "type": "function"
    },
    {
      "inputs": [],
      "name": "stakeToken",
      "outputs": [
        {
          "internalType": "address",
          "name": "",
          "type": "address"
        }
      ],
      "stateMutability": "view",
      "type": "function"
    },
    {
      "inputs": [],
      "name": "stakerCount",
      "outputs": [
        {
          "internalType": "uint256",
          "name": "",
          "type": "uint256"
        }
      ],
      "stateMutability": "view",
      "type": "function"
    },
    {
      "inputs": [
        {
          "internalType": "address",
          "name": "owner",
          "type": "address"
        }
      ],
      "name": "withdrawableFunds",
      "outputs": [
        {
          "internalType": "uint256",
          "name": "",
          "type": "uint256"
        }
      ],
      "stateMutability": "view",
      "type": "function"
    },
    {
      "inputs": [
        {
          "internalType": "uint256",
          "name": "zombieNum",
          "type": "uint256"
        }
      ],
      "name": "zombieAddress",
      "outputs": [
        {
          "internalType": "address",
          "name": "",
          "type": "address"
        }
      ],
      "stateMutability": "view",
      "type": "function"
    },
    {
      "inputs": [],
      "name": "zombieCount",
      "outputs": [
        {
          "internalType": "uint256",
          "name": "",
          "type": "uint256"
        }
      ],
      "stateMutability": "view",
      "type": "function"
    },
    {
      "inputs": [
        {
          "internalType": "uint256",
          "name": "zombieNum",
          "type": "uint256"
        }
      ],
      "name": "zombieLatestStakedNode",
      "outputs": [
        {
          "internalType": "uint256",
          "name": "",
          "type": "uint256"
        }
      ],
      "stateMutability": "view",
      "type": "function"
    },
    {
      "stateMutability": "payable",
      "type": "receive"
    }
  ],
  "bytecode": "0x60806040523480156200001157600080fd5b506040516200270738038062002707833981810160405260208110156200003757600080fd5b810190808051906020019092919050505060016000806101000a81548160ff0219169083151502179055506000600b60006101000a81548160ff02191690831515021790555080600c81905550620000946200010e60201b60201c565b62000107576040517f08c379a00000000000000000000000000000000000000000000000000000000081526004018080602001828103825260148152602001807f434f4e5354525543544f525f4e4f545f494e495400000000000000000000000081525060200191505060405180910390fd5b506200011b565b600080600c541415905090565b6125dc806200012b6000396000f3fe6080604052600436106102555760003560e01c80637ba9534a11610139578063d735e21d116100b6578063e4781e101161007a578063e4781e1014610c1b578063e8bd492214610c46578063ef40a67014610cdf578063f33e1fac14610d44578063f51de41b14610d93578063f8d1f19414610dd457610264565b8063d735e21d14610b2e578063d7445bc814610b59578063d93fe9c414610b84578063dc72a33b14610bc5578063dff6978714610bf057610264565b806395fcea78116100fd57806395fcea78146109ef5780639e8a713f14610a06578063ce11e6ab14610a47578063d01e660214610a88578063d4f4329314610aed57610264565b80637ba9534a146108c65780637f4320ce146108f15780638640ce5f1461091c5780638da5cb5b1461094757806391c657e81461098857610264565b80636177fd18116101d257806369fd251c1161019657806369fd251c1461068e5780636f791d2914610709578063715ea22b1461073657806376e7e23b14610777578063771b2f97146107a25780637b6abd9c146107cd57610264565b80636177fd181461050e57806362a82d7d1461057557806363721d6b146105da57806365f7f80d14610605578063662ea47d1461063057610264565b80634f0f4aa9116102195780634f0f4aa9146103cf57806351ed6a30146104345780635c975abb146104755780635dbaf68b146104a25780635e8ef106146104e357610264565b80632e7acfa61461026e5780632f30cabd146102995780633e55c0c7146102fe5780633e96576e1461033f57806345e38b64146103a457610264565b3661026457610262610e23565b005b61026c610e23565b005b34801561027a57600080fd5b50610283610e3d565b6040518082815260200191505060405180910390f35b3480156102a557600080fd5b506102e8600480360360208110156102bc57600080fd5b81019080803573ffffffffffffffffffffffffffffffffffffffff169060200190929190505050610e43565b6040518082815260200191505060405180910390f35b34801561030a57600080fd5b50610313610e8c565b604051808273ffffffffffffffffffffffffffffffffffffffff16815260200191505060405180910390f35b34801561034b57600080fd5b5061038e6004803603602081101561036257600080fd5b81019080803573ffffffffffffffffffffffffffffffffffffffff169060200190929190505050610eb2565b6040518082815260200191505060405180910390f35b3480156103b057600080fd5b506103b9610efe565b6040518082815260200191505060405180910390f35b3480156103db57600080fd5b50610408600480360360208110156103f257600080fd5b8101908080359060200190929190505050610f04565b604051808273ffffffffffffffffffffffffffffffffffffffff16815260200191505060405180910390f35b34801561044057600080fd5b50610449610f41565b604051808273ffffffffffffffffffffffffffffffffffffffff16815260200191505060405180910390f35b34801561048157600080fd5b5061048a610f67565b60405180821515815260200191505060405180910390f35b3480156104ae57600080fd5b506104b7610f7e565b604051808273ffffffffffffffffffffffffffffffffffffffff16815260200191505060405180910390f35b3480156104ef57600080fd5b506104f8610fa4565b6040518082815260200191505060405180910390f35b34801561051a57600080fd5b5061055d6004803603602081101561053157600080fd5b81019080803573ffffffffffffffffffffffffffffffffffffffff169060200190929190505050610fae565b60405180821515815260200191505060405180910390f35b34801561058157600080fd5b506105ae6004803603602081101561059857600080fd5b8101908080359060200190929190505050611007565b604051808273ffffffffffffffffffffffffffffffffffffffff16815260200191505060405180910390f35b3480156105e657600080fd5b506105ef611048565b6040518082815260200191505060405180910390f35b34801561061157600080fd5b5061061a611055565b6040518082815260200191505060405180910390f35b34801561063c57600080fd5b5061064561105f565b604051808373ffffffffffffffffffffffffffffffffffffffff1681526020018273ffffffffffffffffffffffffffffffffffffffff1681526020019250505060405180910390f35b34801561069a57600080fd5b506106dd600480360360208110156106b157600080fd5b81019080803573ffffffffffffffffffffffffffffffffffffffff16906020019092919050505061107a565b604051808273ffffffffffffffffffffffffffffffffffffffff16815260200191505060405180910390f35b34801561071557600080fd5b5061071e6110e6565b60405180821515815260200191505060405180910390f35b34801561074257600080fd5b5061074b6110fc565b604051808273ffffffffffffffffffffffffffffffffffffffff16815260200191505060405180910390f35b34801561078357600080fd5b5061078c61113c565b6040518082815260200191505060405180910390f35b3480156107ae57600080fd5b506107b7611142565b6040518082815260200191505060405180910390f35b3480156107d957600080fd5b506108c460048036036102408110156107f157600080fd5b810190808035906020019092919080608001909192919290803573ffffffffffffffffffffffffffffffffffffffff169060200190929190803573ffffffffffffffffffffffffffffffffffffffff1690602001909291908035906020019064010000000081111561086257600080fd5b82018360208201111561087457600080fd5b8035906020019184600183028401116401000000008311171561089657600080fd5b90919293919293908060c0019091929192908060400190919291929080604001909192919290505050611148565b005b3480156108d257600080fd5b506108db611c80565b6040518082815260200191505060405180910390f35b3480156108fd57600080fd5b50610906611c8a565b6040518082815260200191505060405180910390f35b34801561092857600080fd5b50610931611c90565b6040518082815260200191505060405180910390f35b34801561095357600080fd5b5061095c611c9a565b604051808273ffffffffffffffffffffffffffffffffffffffff16815260200191505060405180910390f35b34801561099457600080fd5b506109d7600480360360208110156109ab57600080fd5b81019080803573ffffffffffffffffffffffffffffffffffffffff169060200190929190505050611cc0565b60405180821515815260200191505060405180910390f35b3480156109fb57600080fd5b50610a04611d69565b005b348015610a1257600080fd5b50610a1b611e29565b604051808273ffffffffffffffffffffffffffffffffffffffff16815260200191505060405180910390f35b348015610a5357600080fd5b50610a5c611e4f565b604051808273ffffffffffffffffffffffffffffffffffffffff16815260200191505060405180910390f35b348015610a9457600080fd5b50610ac160048036036020811015610aab57600080fd5b8101908080359060200190929190505050611e75565b604051808273ffffffffffffffffffffffffffffffffffffffff16815260200191505060405180910390f35b348015610af957600080fd5b50610b02611ebd565b604051808273ffffffffffffffffffffffffffffffffffffffff16815260200191505060405180910390f35b348015610b3a57600080fd5b50610b43611efd565b6040518082815260200191505060405180910390f35b348015610b6557600080fd5b50610b6e611f07565b6040518082815260200191505060405180910390f35b348015610b9057600080fd5b50610b99611f0d565b604051808273ffffffffffffffffffffffffffffffffffffffff16815260200191505060405180910390f35b348015610bd157600080fd5b50610bda611f33565b6040518082815260200191505060405180910390f35b348015610bfc57600080fd5b50610c05611f39565b6040518082815260200191505060405180910390f35b348015610c2757600080fd5b50610c30611f46565b6040518082815260200191505060405180910390f35b348015610c5257600080fd5b50610c9560048036036020811015610c6957600080fd5b81019080803573ffffffffffffffffffffffffffffffffffffffff169060200190929190505050611f4c565b604051808681526020018581526020018481526020018373ffffffffffffffffffffffffffffffffffffffff16815260200182151581526020019550505050505060405180910390f35b348015610ceb57600080fd5b50610d2e60048036036020811015610d0257600080fd5b81019080803573ffffffffffffffffffffffffffffffffffffffff169060200190929190505050611faf565b6040518082815260200191505060405180910390f35b348015610d5057600080fd5b50610d7d60048036036020811015610d6757600080fd5b8101908080359060200190929190505050611ffb565b6040518082815260200191505060405180910390f35b348015610d9f57600080fd5b50610da8612023565b604051808273ffffffffffffffffffffffffffffffffffffffff16815260200191505060405180910390f35b348015610de057600080fd5b50610e0d60048036036020811015610df757600080fd5b8101908080359060200190929190505050612049565b6040518082815260200191505060405180910390f35b610e2b612066565b610e3b610e36612068565b61222a565b565b600c5481565b6000600a60008373ffffffffffffffffffffffffffffffffffffffff1673ffffffffffffffffffffffffffffffffffffffff168152602001908152602001600020549050919050565b601160009054906101000a900473ffffffffffffffffffffffffffffffffffffffff1681565b6000600860008373ffffffffffffffffffffffffffffffffffffffff1673ffffffffffffffffffffffffffffffffffffffff168152602001908152602001600020600101549050919050565b60185481565b60006005600083815260200190815260200160002060009054906101000a900473ffffffffffffffffffffffffffffffffffffffff169050919050565b601760009054906101000a900473ffffffffffffffffffffffffffffffffffffffff1681565b6000600b60009054906101000a900460ff16905090565b601460009054906101000a900473ffffffffffffffffffffffffffffffffffffffff1681565b6000600e54905090565b6000600860008373ffffffffffffffffffffffffffffffffffffffff1673ffffffffffffffffffffffffffffffffffffffff16815260200190815260200160002060030160149054906101000a900460ff169050919050565b60006007828154811061101657fe5b9060005260206000200160009054906101000a900473ffffffffffffffffffffffffffffffffffffffff169050919050565b6000600980549050905090565b6000600154905090565b60008061106a611ebd565b6110726110fc565b915091509091565b6000600860008373ffffffffffffffffffffffffffffffffffffffff1673ffffffffffffffffffffffffffffffffffffffff16815260200190815260200160002060030160009054906101000a900473ffffffffffffffffffffffffffffffffffffffff169050919050565b60008060009054906101000a900460ff16905090565b6000601c60018154811061110c57fe5b9060005260206000200160009054906101000a900473ffffffffffffffffffffffffffffffffffffffff16905090565b600f5481565b600d5481565b611150612250565b156111c3576040517f08c379a000000000000000000000000000000000000000000000000000000000815260040180806020018281038252600c8152602001807f414c52454144595f494e4954000000000000000000000000000000000000000081525060200191505060405180910390fd5b611209826000600281106111d357fe5b602002013573ffffffffffffffffffffffffffffffffffffffff1673ffffffffffffffffffffffffffffffffffffffff1661225d565b61127b576040517f08c379a00000000000000000000000000000000000000000000000000000000081526004018080602001828103825260148152602001807f46414345545f305f4e4f545f434f4e545241435400000000000000000000000081525060200191505060405180910390fd5b6112c18260016002811061128b57fe5b602002013573ffffffffffffffffffffffffffffffffffffffff1673ffffffffffffffffffffffffffffffffffffffff1661225d565b611333576040517f08c379a00000000000000000000000000000000000000000000000000000000081526004018080602001828103825260148152602001807f46414345545f315f4e4f545f434f4e545241435400000000000000000000000081525060200191505060405180910390fd5b60008260016002811061134257fe5b602002013573ffffffffffffffffffffffffffffffffffffffff1673ffffffffffffffffffffffffffffffffffffffff1663c4d66de860e01b89604051602401808273ffffffffffffffffffffffffffffffffffffffff168152602001915050604051602081830303815290604052907bffffffffffffffffffffffffffffffffffffffffffffffffffffffff19166020820180517bffffffffffffffffffffffffffffffffffffffffffffffffffffffff83818316178352505050506040518082805190602001908083835b60208310611432578051825260208201915060208101905060208303925061140f565b6001836020036101000a038019825116818451168082178552505050505050905001915050600060405180830381855af49150503d8060008114611492576040519150601f19603f3d011682016040523d82523d6000602084013e611497565b606091505b505090508061150e576040517f08c379a000000000000000000000000000000000000000000000000000000000815260040180806020018281038252600f8152602001807f4641494c5f494e49545f4641434554000000000000000000000000000000000081525060200191505060405180910390fd5b8360006006811061151b57fe5b602002013573ffffffffffffffffffffffffffffffffffffffff16601060006101000a81548173ffffffffffffffffffffffffffffffffffffffff021916908373ffffffffffffffffffffffffffffffffffffffff1602179055508360016006811061158357fe5b602002013573ffffffffffffffffffffffffffffffffffffffff16601160006101000a81548173ffffffffffffffffffffffffffffffffffffffff021916908373ffffffffffffffffffffffffffffffffffffffff160217905550836002600681106115eb57fe5b602002013573ffffffffffffffffffffffffffffffffffffffff16601260006101000a81548173ffffffffffffffffffffffffffffffffffffffff021916908373ffffffffffffffffffffffffffffffffffffffff160217905550601060009054906101000a900473ffffffffffffffffffffffffffffffffffffffff1673ffffffffffffffffffffffffffffffffffffffff1663cee3d7288560026006811061169157fe5b602002013573ffffffffffffffffffffffffffffffffffffffff1660016040518363ffffffff1660e01b8152600401808373ffffffffffffffffffffffffffffffffffffffff168152602001821515815260200192505050600060405180830381600087803b15801561170357600080fd5b505af1158015611717573d6000803e3d6000fd5b505050508360036006811061172857fe5b602002013573ffffffffffffffffffffffffffffffffffffffff16601360006101000a81548173ffffffffffffffffffffffffffffffffffffffff021916908373ffffffffffffffffffffffffffffffffffffffff160217905550601060009054906101000a900473ffffffffffffffffffffffffffffffffffffffff1673ffffffffffffffffffffffffffffffffffffffff1663e45b7ce6856003600681106117ce57fe5b602002013573ffffffffffffffffffffffffffffffffffffffff1660016040518363ffffffff1660e01b8152600401808373ffffffffffffffffffffffffffffffffffffffff168152602001821515815260200192505050600060405180830381600087803b15801561184057600080fd5b505af1158015611854573d6000803e3d6000fd5b50505050601360009054906101000a900473ffffffffffffffffffffffffffffffffffffffff1673ffffffffffffffffffffffffffffffffffffffff1663bc49accb8a6000600481106118a357fe5b60200201358b6002600481106118b557fe5b60200201358a8a8a6040518663ffffffff1660e01b8152600401808681526020018581526020018473ffffffffffffffffffffffffffffffffffffffff168152602001806020018281038252848482818152602001925080828437600081840152601f19601f8201169050808301925050509650505050505050600060405180830381600087803b15801561194957600080fd5b505af115801561195d573d6000803e3d6000fd5b505050508360046006811061196e57fe5b602002013573ffffffffffffffffffffffffffffffffffffffff16601460006101000a81548173ffffffffffffffffffffffffffffffffffffffff021916908373ffffffffffffffffffffffffffffffffffffffff160217905550836005600681106119d657fe5b602002013573ffffffffffffffffffffffffffffffffffffffff16601560006101000a81548173ffffffffffffffffffffffffffffffffffffffff021916908373ffffffffffffffffffffffffffffffffffffffff1602179055506000611a3c8b612270565b9050611a47816123a8565b89600060048110611a5457fe5b6020020135600c8190555089600160048110611a6c57fe5b6020020135600d8190555089600260048110611a8457fe5b6020020135600e8190555089600360048110611a9c57fe5b6020020135600f8190555087601660006101000a81548173ffffffffffffffffffffffffffffffffffffffff021916908373ffffffffffffffffffffffffffffffffffffffff160217905550604b601881905550610190601b81905550601160009054906101000a900473ffffffffffffffffffffffffffffffffffffffff1673ffffffffffffffffffffffffffffffffffffffff16634d480faa84600060028110611b4457fe5b602002013585600160028110611b5657fe5b60200201356040518363ffffffff1660e01b81526004018083815260200182815260200192505050600060405180830381600087803b158015611b9857600080fd5b505af1158015611bac573d6000803e3d6000fd5b5050505083601c906002611bc19291906124cb565b507f4ac0014773275a3dfb58c58539631006301de41998cce7c4f8698d297c88bb2d8b6040518082815260200191505060405180910390a1611c01612250565b611c73576040517f08c379a00000000000000000000000000000000000000000000000000000000081526004018080602001828103825260138152602001807f494e495449414c495a455f4e4f545f494e49540000000000000000000000000081525060200191505060405180910390fd5b5050505050505050505050565b6000600354905090565b601a5481565b6000600454905090565b601660009054906101000a900473ffffffffffffffffffffffffffffffffffffffff1681565b600080600090505b600980549050811015611d5e5760098181548110611ce257fe5b906000526020600020906002020160000160009054906101000a900473ffffffffffffffffffffffffffffffffffffffff1673ffffffffffffffffffffffffffffffffffffffff168373ffffffffffffffffffffffffffffffffffffffff161415611d51576001915050611d64565b8080600101915050611cc8565b50600090505b919050565b6000611d73612405565b90508073ffffffffffffffffffffffffffffffffffffffff163373ffffffffffffffffffffffffffffffffffffffff1614611e16576040517f08c379a000000000000000000000000000000000000000000000000000000000815260040180806020018281038252600e8152602001807f4e4f545f46524f4d5f41444d494e00000000000000000000000000000000000081525060200191505060405180910390fd5b60006019819055506000601a8190555050565b601360009054906101000a900473ffffffffffffffffffffffffffffffffffffffff1681565b601260009054906101000a900473ffffffffffffffffffffffffffffffffffffffff1681565b600060098281548110611e8457fe5b906000526020600020906002020160000160009054906101000a900473ffffffffffffffffffffffffffffffffffffffff169050919050565b6000601c600081548110611ecd57fe5b9060005260206000200160009054906101000a900473ffffffffffffffffffffffffffffffffffffffff16905090565b6000600254905090565b600e5481565b601560009054906101000a900473ffffffffffffffffffffffffffffffffffffffff1681565b601b5481565b6000600780549050905090565b60195481565b60086020528060005260406000206000915090508060000154908060010154908060020154908060030160009054906101000a900473ffffffffffffffffffffffffffffffffffffffff16908060030160149054906101000a900460ff16905085565b6000600860008373ffffffffffffffffffffffffffffffffffffffff1673ffffffffffffffffffffffffffffffffffffffff168152602001908152602001600020600201549050919050565b60006009828154811061200a57fe5b9060005260206000209060020201600101549050919050565b601060009054906101000a900473ffffffffffffffffffffffffffffffffffffffff1681565b600060066000838152602001908152602001600020549050919050565b565b60006004600036905010156120e5576040517f08c379a000000000000000000000000000000000000000000000000000000000815260040180806020018281038252600b8152602001807f4e4f5f46554e435f53494700000000000000000000000000000000000000000081525060200191505060405180910390fd5b6000601660009054906101000a900473ffffffffffffffffffffffffffffffffffffffff16905060008073ffffffffffffffffffffffffffffffffffffffff168273ffffffffffffffffffffffffffffffffffffffff161415801561217557503373ffffffffffffffffffffffffffffffffffffffff168273ffffffffffffffffffffffffffffffffffffffff16145b612186576121816110fc565b61218f565b61218e611ebd565b5b90506121b08173ffffffffffffffffffffffffffffffffffffffff1661225d565b612222576040517f08c379a00000000000000000000000000000000000000000000000000000000081526004018080602001828103825260138152602001807f5441524745545f4e4f545f434f4e54524143540000000000000000000000000081525060200191505060405180910390fd5b809250505090565b3660008037600080366000845af43d6000803e806000811461224b573d6000f35b3d6000fd5b600080600c541415905090565b600080823b905060008111915050919050565b6000806122c6604051806101200160405280600081526020018581526020016000815260200160008152602001600081526020016000801b81526020016000801b81526020014381526020016001815250612436565b9050601560009054906101000a900473ffffffffffffffffffffffffffffffffffffffff1673ffffffffffffffffffffffffffffffffffffffff1663d45ab2b5826000806000436040518663ffffffff1660e01b8152600401808681526020018560001b81526020018460001b815260200183815260200182815260200195505050505050602060405180830381600087803b15801561236557600080fd5b505af1158015612379573d6000803e3d6000fd5b505050506040513d602081101561238f57600080fd5b8101908080519060200190929190505050915050919050565b806005600080815260200190815260200160002060006101000a81548173ffffffffffffffffffffffffffffffffffffffff021916908373ffffffffffffffffffffffffffffffffffffffff160217905550600160028190555050565b6000807fb53127684a568b3173ae13b9f8a6016e243e63b6e8ee1178d6a717850b5d610360001b9050805491505090565b6000816000015182602001518360400151846060015185608001518660a001518760c001518860e00151896101000151604051602001808a81526020018981526020018881526020018781526020018681526020018581526020018481526020018381526020018281526020019950505050505050505050604051602081830303815290604052805190602001209050919050565b82805482825590600052602060002090810192821561255a579160200282015b8281111561255957823573ffffffffffffffffffffffffffffffffffffffff168260006101000a81548173ffffffffffffffffffffffffffffffffffffffff021916908373ffffffffffffffffffffffffffffffffffffffff160217905550916020019190600101906124eb565b5b509050612567919061256b565b5090565b5b808211156125a257600081816101000a81549073ffffffffffffffffffffffffffffffffffffffff02191690555060010161256c565b509056fea26469706673582212202844d75190b3f3f8a5d25387570fad98d1a9022243a1c8ea2250ba07697f91c664736f6c634300060c0033",
  "linkReferences": {},
  "deployedLinkReferences": {}
}