{
  "_format": "hh-sol-artifact-1",
  "contractName": "GreeterL2",
  "sourceName": "contracts/arbitrum/GreeterL2.sol",
  "abi": [
    {
      "inputs": [
        {
          "internalType": "string",
          "name": "_greeting",
          "type": "string"
        },
        {
          "internalType": "address",
          "name": "_l1Target",
          "type": "address"
        }
      ],
      "stateMutability": "nonpayable",
      "type": "constructor"
    },
    {
      "anonymous": false,
      "inputs": [
        {
          "indexed": true,
          "internalType": "uint256",
          "name": "withdrawalId",
          "type": "uint256"
        }
      ],
      "name": "L2ToL1TxCreated",
      "type": "event"
    },
    {
      "inputs": [],
      "name": "greet",
      "outputs": [
        {
          "internalType": "string",
          "name": "",
          "type": "string"
        }
      ],
      "stateMutability": "view",
      "type": "function"
    },
    {
      "inputs": [],
      "name": "l1Target",
      "outputs": [
        {
          "internalType": "address",
          "name": "",
          "type": "address"
        }
      ],
      "stateMutability": "view",
      "type": "function"
    },
    {
      "inputs": [
        {
          "internalType": "string",
          "name": "_greeting",
          "type": "string"
        }
      ],
      "name": "setGreeting",
      "outputs": [],
      "stateMutability": "nonpayable",
      "type": "function"
    },
    {
      "inputs": [
        {
          "internalType": "string",
          "name": "_greeting",
          "type": "string"
        }
      ],
      "name": "setGreetingInL1",
      "outputs": [
        {
          "internalType": "uint256",
          "name": "",
          "type": "uint256"
        }
      ],
      "stateMutability": "nonpayable",
      "type": "function"
    },
    {
      "inputs": [
        {
          "internalType": "address",
          "name": "_l1Target",
          "type": "address"
        }
      ],
      "name": "updateL1Target",
      "outputs": [],
      "stateMutability": "nonpayable",
      "type": "function"
    }
  ],
  "bytecode": "0x608060405234801561001057600080fd5b50604051610a29380380610a298339818101604052604081101561003357600080fd5b810190808051604051939291908464010000000082111561005357600080fd5b8382019150602082018581111561006957600080fd5b825186600182028301116401000000008211171561008657600080fd5b8083526020830192505050908051906020019080838360005b838110156100ba57808201518184015260208101905061009f565b50505050905090810190601f1680156100e75780820380516001836020036101000a031916815260200191505b506040526020018051906020019092919050505081806000908051906020019061011292919061015c565b505080600160006101000a81548173ffffffffffffffffffffffffffffffffffffffff021916908373ffffffffffffffffffffffffffffffffffffffff16021790555050506101f9565b828054600181600116156101000203166002900490600052602060002090601f016020900481019282601f1061019d57805160ff19168380011785556101cb565b828001600101855582156101cb579182015b828111156101ca5782518255916020019190600101906101af565b5b5090506101d891906101dc565b5090565b5b808211156101f55760008160009055506001016101dd565b5090565b610821806102086000396000f3fe608060405234801561001057600080fd5b50600436106100575760003560e01c80635325e4a61461005c578063a413686214610090578063bf225ed61461014b578063cfae32171461021a578063f3c61c2b1461029d575b600080fd5b6100646102e1565b604051808273ffffffffffffffffffffffffffffffffffffffff16815260200191505060405180910390f35b610149600480360360208110156100a657600080fd5b81019080803590602001906401000000008111156100c357600080fd5b8201836020820111156100d557600080fd5b803590602001918460018302840111640100000000831117156100f757600080fd5b91908080601f016020809104026020016040519081016040528093929190818152602001838380828437600081840152601f19601f820116905080830192505050505050509192919290505050610307565b005b6102046004803603602081101561016157600080fd5b810190808035906020019064010000000081111561017e57600080fd5b82018360208201111561019057600080fd5b803590602001918460018302840111640100000000831117156101b257600080fd5b91908080601f016020809104026020016040519081016040528093929190818152602001838380828437600081840152601f19601f8201169050808301925050505050505091929192905050506103de565b6040518082815260200191505060405180910390f35b61022261062e565b6040518080602001828103825283818151815260200191508051906020019080838360005b83811015610262578082015181840152602081019050610247565b50505050905090810190601f16801561028f5780820380516001836020036101000a031916815260200191505b509250505060405180910390f35b6102df600480360360208110156102b357600080fd5b81019080803573ffffffffffffffffffffffffffffffffffffffff1690602001909291905050506106d0565b005b600160009054906101000a900473ffffffffffffffffffffffffffffffffffffffff1681565b610332600160009054906101000a900473ffffffffffffffffffffffffffffffffffffffff16610714565b73ffffffffffffffffffffffffffffffffffffffff163373ffffffffffffffffffffffffffffffffffffffff16146103d2576040517f08c379a000000000000000000000000000000000000000000000000000000000815260040180806020018281038252601e8152602001807f4772656574696e67206f6e6c792075706461746561626c65206279204c31000081525060200191505060405180910390fd5b6103db81610734565b50565b6000606063a413686260e01b836040516024018080602001828103825283818151815260200191508051906020019080838360005b8381101561042e578082015181840152602081019050610413565b50505050905090810190601f16801561045b5780820380516001836020036101000a031916815260200191505b5092505050604051602081830303815290604052907bffffffffffffffffffffffffffffffffffffffffffffffffffffffff19166020820180517bffffffffffffffffffffffffffffffffffffffffffffffffffffffff838183161783525050505090506000606473ffffffffffffffffffffffffffffffffffffffff1663928c169a600160009054906101000a900473ffffffffffffffffffffffffffffffffffffffff16846040518363ffffffff1660e01b8152600401808373ffffffffffffffffffffffffffffffffffffffff16815260200180602001828103825283818151815260200191508051906020019080838360005b8381101561056d578082015181840152602081019050610552565b50505050905090810190601f16801561059a5780820380516001836020036101000a031916815260200191505b509350505050602060405180830381600087803b1580156105ba57600080fd5b505af11580156105ce573d6000803e3d6000fd5b505050506040513d60208110156105e457600080fd5b81019080805190602001909291905050509050807facd96f3817031b95eab52de9132d4a9dd13dac3d9dfcfe950ca9283c89b851a560405160405180910390a28092505050919050565b606060008054600181600116156101000203166002900480601f0160208091040260200160405190810160405280929190818152602001828054600181600116156101000203166002900480156106c65780601f1061069b576101008083540402835291602001916106c6565b820191906000526020600020905b8154815290600101906020018083116106a957829003601f168201915b5050505050905090565b80600160006101000a81548173ffffffffffffffffffffffffffffffffffffffff021916908373ffffffffffffffffffffffffffffffffffffffff16021790555050565b600073111100000000000000000000000000000000111182019050919050565b806000908051906020019061074a92919061074e565b5050565b828054600181600116156101000203166002900490600052602060002090601f016020900481019282601f1061078f57805160ff19168380011785556107bd565b828001600101855582156107bd579182015b828111156107bc5782518255916020019190600101906107a1565b5b5090506107ca91906107ce565b5090565b5b808211156107e75760008160009055506001016107cf565b509056fea26469706673582212209bc4e9308761c469b2648ce7ac9d1311df2fd929e62d22e811ea5574db41bbd464736f6c634300060c0033",
  "linkReferences": {},
  "deployedLinkReferences": {}
}