{
  "_format": "hh-sol-artifact-1",
  "contractName": "RollupEventBridge",
  "sourceName": "arb-bridge-eth/contracts/rollup/RollupEventBridge.sol",
  "abi": [
    {
      "anonymous": false,
      "inputs": [
        {
          "indexed": true,
          "internalType": "uint256",
          "name": "messageNum",
          "type": "uint256"
        },
        {
          "indexed": false,
          "internalType": "bytes",
          "name": "data",
          "type": "bytes"
        }
      ],
      "name": "InboxMessageDelivered",
      "type": "event"
    },
    {
      "anonymous": false,
      "inputs": [
        {
          "indexed": true,
          "internalType": "uint256",
          "name": "messageNum",
          "type": "uint256"
        }
      ],
      "name": "InboxMessageDeliveredFromOrigin",
      "type": "event"
    },
    {
      "inputs": [
        {
          "internalType": "address",
          "name": "_bridge",
          "type": "address"
        },
        {
          "internalType": "address",
          "name": "_rollup",
          "type": "address"
        }
      ],
      "name": "initialize",
      "outputs": [],
      "stateMutability": "nonpayable",
      "type": "function"
    },
    {
      "inputs": [],
      "name": "isMaster",
      "outputs": [
        {
          "internalType": "bool",
          "name": "",
          "type": "bool"
        }
      ],
      "stateMutability": "view",
      "type": "function"
    },
    {
      "inputs": [
        {
          "internalType": "uint256",
          "name": "nodeNum",
          "type": "uint256"
        }
      ],
      "name": "nodeConfirmed",
      "outputs": [],
      "stateMutability": "nonpayable",
      "type": "function"
    },
    {
      "inputs": [
        {
          "internalType": "uint256",
          "name": "nodeNum",
          "type": "uint256"
        },
        {
          "internalType": "uint256",
          "name": "prev",
          "type": "uint256"
        },
        {
          "internalType": "uint256",
          "name": "deadline",
          "type": "uint256"
        },
        {
          "internalType": "address",
          "name": "asserter",
          "type": "address"
        }
      ],
      "name": "nodeCreated",
      "outputs": [],
      "stateMutability": "nonpayable",
      "type": "function"
    },
    {
      "inputs": [
        {
          "internalType": "uint256",
          "name": "nodeNum",
          "type": "uint256"
        }
      ],
      "name": "nodeRejected",
      "outputs": [],
      "stateMutability": "nonpayable",
      "type": "function"
    },
    {
      "inputs": [
        {
          "internalType": "uint256",
          "name": "confirmPeriodBlocks",
          "type": "uint256"
        },
        {
          "internalType": "uint256",
          "name": "avmGasSpeedLimitPerBlock",
          "type": "uint256"
        },
        {
          "internalType": "address",
          "name": "owner",
          "type": "address"
        },
        {
          "internalType": "bytes",
          "name": "extraConfig",
          "type": "bytes"
        }
      ],
      "name": "rollupInitialized",
      "outputs": [],
      "stateMutability": "nonpayable",
      "type": "function"
    },
    {
      "inputs": [
        {
          "internalType": "address",
          "name": "staker",
          "type": "address"
        },
        {
          "internalType": "uint256",
          "name": "nodeNum",
          "type": "uint256"
        }
      ],
      "name": "stakeCreated",
      "outputs": [],
      "stateMutability": "nonpayable",
      "type": "function"
    }
  ],
  "bytecode": "0x608060405234801561001057600080fd5b5060016000806101000a81548160ff021916908315150217905550610d668061003a6000396000f3fe608060405234801561001057600080fd5b506004361061007d5760003560e01c80636f791d291161005b5780636f791d29146101425780638b8ca19914610162578063bc49accb146101c4578063f03c04a5146102715761007d565b806316b9109b1461008257806330a826b4146100b0578063485cc955146100de575b600080fd5b6100ae6004803603602081101561009857600080fd5b81019080803590602001909291905050506102bf565b005b6100dc600480360360208110156100c657600080fd5b81019080803590602001909291905050506103bc565b005b610140600480360360408110156100f457600080fd5b81019080803573ffffffffffffffffffffffffffffffffffffffff169060200190929190803573ffffffffffffffffffffffffffffffffffffffff1690602001909291905050506104b9565b005b61014a610603565b60405180821515815260200191505060405180910390f35b6101c26004803603608081101561017857600080fd5b81019080803590602001909291908035906020019092919080359060200190929190803573ffffffffffffffffffffffffffffffffffffffff169060200190929190505050610619565b005b61026f600480360360808110156101da57600080fd5b810190808035906020019092919080359060200190929190803573ffffffffffffffffffffffffffffffffffffffff1690602001909291908035906020019064010000000081111561022b57600080fd5b82018360208201111561023d57600080fd5b8035906020019184600183028401116401000000008311171561025f57600080fd5b9091929391929390505050610755565b005b6102bd6004803603604081101561028757600080fd5b81019080803573ffffffffffffffffffffffffffffffffffffffff16906020019092919080359060200190929190505050610a86565b005b600160009054906101000a900473ffffffffffffffffffffffffffffffffffffffff1673ffffffffffffffffffffffffffffffffffffffff163373ffffffffffffffffffffffffffffffffffffffff1614610382576040517f08c379a000000000000000000000000000000000000000000000000000000000815260040180806020018281038252600b8152602001807f4f4e4c595f524f4c4c555000000000000000000000000000000000000000000081525060200191505060405180910390fd5b6103b9600182604051602001808360ff1660f81b815260010182815260200192505050604051602081830303815290604052610bb0565b50565b600160009054906101000a900473ffffffffffffffffffffffffffffffffffffffff1673ffffffffffffffffffffffffffffffffffffffff163373ffffffffffffffffffffffffffffffffffffffff161461047f576040517f08c379a000000000000000000000000000000000000000000000000000000000815260040180806020018281038252600b8152602001807f4f4e4c595f524f4c4c555000000000000000000000000000000000000000000081525060200191505060405180910390fd5b6104b6600282604051602001808360ff1660f81b815260010182815260200192505050604051602081830303815290604052610bb0565b50565b600073ffffffffffffffffffffffffffffffffffffffff16600160009054906101000a900473ffffffffffffffffffffffffffffffffffffffff1673ffffffffffffffffffffffffffffffffffffffff161461057d576040517f08c379a000000000000000000000000000000000000000000000000000000000815260040180806020018281038252600c8152602001807f414c52454144595f494e4954000000000000000000000000000000000000000081525060200191505060405180910390fd5b81600060016101000a81548173ffffffffffffffffffffffffffffffffffffffff021916908373ffffffffffffffffffffffffffffffffffffffff16021790555080600160006101000a81548173ffffffffffffffffffffffffffffffffffffffff021916908373ffffffffffffffffffffffffffffffffffffffff1602179055505050565b60008060009054906101000a900460ff16905090565b600160009054906101000a900473ffffffffffffffffffffffffffffffffffffffff1673ffffffffffffffffffffffffffffffffffffffff163373ffffffffffffffffffffffffffffffffffffffff16146106dc576040517f08c379a000000000000000000000000000000000000000000000000000000000815260040180806020018281038252600b8152602001807f4f4e4c595f524f4c4c555000000000000000000000000000000000000000000081525060200191505060405180910390fd5b61074f6000858543868660601b60601c73ffffffffffffffffffffffffffffffffffffffff16604051602001808760ff1660f81b81526001018681526020018581526020018481526020018381526020018281526020019650505050505050604051602081830303815290604052610bb0565b50505050565b600160009054906101000a900473ffffffffffffffffffffffffffffffffffffffff1673ffffffffffffffffffffffffffffffffffffffff163373ffffffffffffffffffffffffffffffffffffffff1614610818576040517f08c379a000000000000000000000000000000000000000000000000000000000815260040180806020018281038252600b8152602001807f4f4e4c595f524f4c4c555000000000000000000000000000000000000000000081525060200191505060405180910390fd5b60607fece83efd40ff2c9c69c406a49cbd4e7019fc5807db782ea78e3ee698923a412c867f44edde536e3f4df60ef7ec43bc928f7438fa9804cb64ef42045ab4781bbc0bb36064888161086757fe5b047f1567aa7175e04611d194275bb504cc64e920959dd01df9d86ab047367aa4c5348860601b60601c73ffffffffffffffffffffffffffffffffffffffff168888604051602001808981526020018881526020018781526020018681526020018581526020018481526020018383808284378083019250505098505050505050505050604051602081830303815290604052905060008060019054906101000a900473ffffffffffffffffffffffffffffffffffffffff1673ffffffffffffffffffffffffffffffffffffffff166302bbfad1600b600085805190602001206040518463ffffffff1660e01b8152600401808460ff1681526020018373ffffffffffffffffffffffffffffffffffffffff1681526020018281526020019350505050602060405180830381600087803b1580156109a357600080fd5b505af11580156109b7573d6000803e3d6000fd5b505050506040513d60208110156109cd57600080fd5b81019080805190602001909291905050509050807fff64905f73a67fb594e0f940a8075a860db489ad991e032f48c81123eb52d60b836040518080602001828103825283818151815260200191508051906020019080838360005b83811015610a43578082015181840152602081019050610a28565b50505050905090810190601f168015610a705780820380516001836020036101000a031916815260200191505b509250505060405180910390a250505050505050565b600160009054906101000a900473ffffffffffffffffffffffffffffffffffffffff1673ffffffffffffffffffffffffffffffffffffffff163373ffffffffffffffffffffffffffffffffffffffff1614610b49576040517f08c379a000000000000000000000000000000000000000000000000000000000815260040180806020018281038252600b8152602001807f4f4e4c595f524f4c4c555000000000000000000000000000000000000000000081525060200191505060405180910390fd5b610bac60038360601b60601c73ffffffffffffffffffffffffffffffffffffffff168343604051602001808560ff1660f81b8152600101848152602001838152602001828152602001945050505050604051602081830303815290604052610bb0565b5050565b600060019054906101000a900473ffffffffffffffffffffffffffffffffffffffff1673ffffffffffffffffffffffffffffffffffffffff166302bbfad160083384805190602001206040518463ffffffff1660e01b8152600401808460ff1681526020018373ffffffffffffffffffffffffffffffffffffffff1681526020018281526020019350505050602060405180830381600087803b158015610c5657600080fd5b505af1158015610c6a573d6000803e3d6000fd5b505050506040513d6020811015610c8057600080fd5b81019080805190602001909291905050507fff64905f73a67fb594e0f940a8075a860db489ad991e032f48c81123eb52d60b826040518080602001828103825283818151815260200191508051906020019080838360005b83811015610cf3578082015181840152602081019050610cd8565b50505050905090810190601f168015610d205780820380516001836020036101000a031916815260200191505b509250505060405180910390a25056fea2646970667358221220b37a26837c53b76e1a3673499569be383b35de87ddede76d27c74abf8405a8e564736f6c634300060c0033",
  "linkReferences": {},
  "deployedLinkReferences": {}
}