{
  "_format": "hh-sol-artifact-1",
  "contractName": "Whitelist",
  "sourceName": "arb-bridge-eth/contracts/libraries/Whitelist.sol",
  "abi": [
    {
      "inputs": [],
      "stateMutability": "nonpayable",
      "type": "constructor"
    },
    {
      "anonymous": false,
      "inputs": [
        {
          "indexed": false,
          "internalType": "address",
          "name": "newOwner",
          "type": "address"
        }
      ],
      "name": "OwnerUpdated",
      "type": "event"
    },
    {
      "anonymous": false,
      "inputs": [
        {
          "indexed": false,
          "internalType": "address",
          "name": "newWhitelist",
          "type": "address"
        },
        {
          "indexed": false,
          "internalType": "address[]",
          "name": "targets",
          "type": "address[]"
        }
      ],
      "name": "WhitelistUpgraded",
      "type": "event"
    },
    {
      "inputs": [
        {
          "internalType": "address",
          "name": "",
          "type": "address"
        }
      ],
      "name": "isAllowed",
      "outputs": [
        {
          "internalType": "bool",
          "name": "",
          "type": "bool"
        }
      ],
      "stateMutability": "view",
      "type": "function"
    },
    {
      "inputs": [],
      "name": "owner",
      "outputs": [
        {
          "internalType": "address",
          "name": "",
          "type": "address"
        }
      ],
      "stateMutability": "view",
      "type": "function"
    },
    {
      "inputs": [
        {
          "internalType": "address",
          "name": "newOwner",
          "type": "address"
        }
      ],
      "name": "setOwner",
      "outputs": [],
      "stateMutability": "nonpayable",
      "type": "function"
    },
    {
      "inputs": [
        {
          "internalType": "address[]",
          "name": "user",
          "type": "address[]"
        },
        {
          "internalType": "bool[]",
          "name": "val",
          "type": "bool[]"
        }
      ],
      "name": "setWhitelist",
      "outputs": [],
      "stateMutability": "nonpayable",
      "type": "function"
    },
    {
      "inputs": [
        {
          "internalType": "address",
          "name": "newWhitelist",
          "type": "address"
        },
        {
          "internalType": "address[]",
          "name": "targets",
          "type": "address[]"
        }
      ],
      "name": "triggerConsumers",
      "outputs": [],
      "stateMutability": "nonpayable",
      "type": "function"
    }
  ],
  "bytecode": "0x608060405234801561001057600080fd5b50336000806101000a81548173ffffffffffffffffffffffffffffffffffffffff021916908373ffffffffffffffffffffffffffffffffffffffff1602179055506108f9806100606000396000f3fe608060405234801561001057600080fd5b50600436106100575760003560e01c806313af40351461005c57806337ca2617146100a05780633b99adf7146101785780638da5cb5b146102c4578063babcc539146102f8575b600080fd5b61009e6004803603602081101561007257600080fd5b81019080803573ffffffffffffffffffffffffffffffffffffffff169060200190929190505050610352565b005b610176600480360360408110156100b657600080fd5b81019080803573ffffffffffffffffffffffffffffffffffffffff169060200190929190803590602001906401000000008111156100f357600080fd5b82018360208201111561010557600080fd5b8035906020019184602083028401116401000000008311171561012757600080fd5b919080806020026020016040519081016040528093929190818152602001838360200280828437600081840152601f19601f8201169050808301925050505050505091929192905050506104a3565b005b6102c26004803603604081101561018e57600080fd5b81019080803590602001906401000000008111156101ab57600080fd5b8201836020820111156101bd57600080fd5b803590602001918460208302840111640100000000831117156101df57600080fd5b919080806020026020016040519081016040528093929190818152602001838360200280828437600081840152601f19601f8201169050808301925050505050505091929192908035906020019064010000000081111561023f57600080fd5b82018360208201111561025157600080fd5b8035906020019184602083028401116401000000008311171561027357600080fd5b919080806020026020016040519081016040528093929190818152602001838360200280828437600081840152601f19601f8201169050808301925050505050505091929192905050506106ac565b005b6102cc61087f565b604051808273ffffffffffffffffffffffffffffffffffffffff16815260200191505060405180910390f35b61033a6004803603602081101561030e57600080fd5b81019080803573ffffffffffffffffffffffffffffffffffffffff1690602001909291905050506108a3565b60405180821515815260200191505060405180910390f35b60008054906101000a900473ffffffffffffffffffffffffffffffffffffffff1673ffffffffffffffffffffffffffffffffffffffff163373ffffffffffffffffffffffffffffffffffffffff1614610413576040517f08c379a000000000000000000000000000000000000000000000000000000000815260040180806020018281038252600a8152602001807f4f4e4c595f4f574e45520000000000000000000000000000000000000000000081525060200191505060405180910390fd5b806000806101000a81548173ffffffffffffffffffffffffffffffffffffffff021916908373ffffffffffffffffffffffffffffffffffffffff1602179055507f4ffd725fc4a22075e9ec71c59edf9c38cdeb588a91b24fc5b61388c5be41282b81604051808273ffffffffffffffffffffffffffffffffffffffff16815260200191505060405180910390a150565b60008054906101000a900473ffffffffffffffffffffffffffffffffffffffff1673ffffffffffffffffffffffffffffffffffffffff163373ffffffffffffffffffffffffffffffffffffffff1614610564576040517f08c379a000000000000000000000000000000000000000000000000000000000815260040180806020018281038252600a8152602001807f4f4e4c595f4f574e45520000000000000000000000000000000000000000000081525060200191505060405180910390fd5b60005b81518110156106115781818151811061057c57fe5b602002602001015173ffffffffffffffffffffffffffffffffffffffff166347466f98846040518263ffffffff1660e01b8152600401808273ffffffffffffffffffffffffffffffffffffffff168152602001915050600060405180830381600087803b1580156105ec57600080fd5b505af1158015610600573d6000803e3d6000fd5b505050508080600101915050610567565b507fd86884520a0656812619831f2b97aa7c77f8064735a7c312f358b9943d30eb788282604051808373ffffffffffffffffffffffffffffffffffffffff16815260200180602001828103825283818151815260200191508051906020019060200280838360005b83811015610694578082015181840152602081019050610679565b50505050905001935050505060405180910390a15050565b60008054906101000a900473ffffffffffffffffffffffffffffffffffffffff1673ffffffffffffffffffffffffffffffffffffffff163373ffffffffffffffffffffffffffffffffffffffff161461076d576040517f08c379a000000000000000000000000000000000000000000000000000000000815260040180806020018281038252600a8152602001807f4f4e4c595f4f574e45520000000000000000000000000000000000000000000081525060200191505060405180910390fd5b80518251146107e4576040517f08c379a000000000000000000000000000000000000000000000000000000000815260040180806020018281038252600d8152602001807f494e56414c49445f494e5055540000000000000000000000000000000000000081525060200191505060405180910390fd5b60005b825181101561087a578181815181106107fc57fe5b60200260200101516001600085848151811061081457fe5b602002602001015173ffffffffffffffffffffffffffffffffffffffff1673ffffffffffffffffffffffffffffffffffffffff16815260200190815260200160002060006101000a81548160ff02191690831515021790555080806001019150506107e7565b505050565b60008054906101000a900473ffffffffffffffffffffffffffffffffffffffff1681565b60016020528060005260406000206000915054906101000a900460ff168156fea26469706673582212206f43d48ee5eadd2e908bb4eb74be3fd93511a6f7c14386966e0a381e5fc9349464736f6c634300060c0033",
  "linkReferences": {},
  "deployedLinkReferences": {}
}