{
  "_format": "hh-sol-artifact-1",
  "contractName": "Outbox",
  "sourceName": "arb-bridge-eth/contracts/bridge/Outbox.sol",
  "abi": [
    {
      "anonymous": false,
      "inputs": [
        {
          "indexed": true,
          "internalType": "address",
          "name": "destAddr",
          "type": "address"
        },
        {
          "indexed": true,
          "internalType": "address",
          "name": "l2Sender",
          "type": "address"
        },
        {
          "indexed": true,
          "internalType": "uint256",
          "name": "outboxEntryIndex",
          "type": "uint256"
        },
        {
          "indexed": false,
          "internalType": "uint256",
          "name": "transactionIndex",
          "type": "uint256"
        }
      ],
      "name": "OutBoxTransactionExecuted",
      "type": "event"
    },
    {
      "anonymous": false,
      "inputs": [
        {
          "indexed": true,
          "internalType": "uint256",
          "name": "batchNum",
          "type": "uint256"
        },
        {
          "indexed": false,
          "internalType": "uint256",
          "name": "outboxEntryIndex",
          "type": "uint256"
        },
        {
          "indexed": false,
          "internalType": "bytes32",
          "name": "outputRoot",
          "type": "bytes32"
        },
        {
          "indexed": false,
          "internalType": "uint256",
          "name": "numInBatch",
          "type": "uint256"
        }
      ],
      "name": "OutboxEntryCreated",
      "type": "event"
    },
    {
      "inputs": [],
      "name": "OUTBOX_VERSION",
      "outputs": [
        {
          "internalType": "uint128",
          "name": "",
          "type": "uint128"
        }
      ],
      "stateMutability": "view",
      "type": "function"
    },
    {
      "inputs": [],
      "name": "bridge",
      "outputs": [
        {
          "internalType": "contract IBridge",
          "name": "",
          "type": "address"
        }
      ],
      "stateMutability": "view",
      "type": "function"
    },
    {
      "inputs": [
        {
          "internalType": "address",
          "name": "l2Sender",
          "type": "address"
        },
        {
          "internalType": "address",
          "name": "destAddr",
          "type": "address"
        },
        {
          "internalType": "uint256",
          "name": "l2Block",
          "type": "uint256"
        },
        {
          "internalType": "uint256",
          "name": "l1Block",
          "type": "uint256"
        },
        {
          "internalType": "uint256",
          "name": "l2Timestamp",
          "type": "uint256"
        },
        {
          "internalType": "uint256",
          "name": "amount",
          "type": "uint256"
        },
        {
          "internalType": "bytes",
          "name": "calldataForL1",
          "type": "bytes"
        }
      ],
      "name": "calculateItemHash",
      "outputs": [
        {
          "internalType": "bytes32",
          "name": "",
          "type": "bytes32"
        }
      ],
      "stateMutability": "pure",
      "type": "function"
    },
    {
      "inputs": [
        {
          "internalType": "bytes32[]",
          "name": "proof",
          "type": "bytes32[]"
        },
        {
          "internalType": "uint256",
          "name": "path",
          "type": "uint256"
        },
        {
          "internalType": "bytes32",
          "name": "item",
          "type": "bytes32"
        }
      ],
      "name": "calculateMerkleRoot",
      "outputs": [
        {
          "internalType": "bytes32",
          "name": "",
          "type": "bytes32"
        }
      ],
      "stateMutability": "pure",
      "type": "function"
    },
    {
      "inputs": [
        {
          "internalType": "uint256",
          "name": "batchNum",
          "type": "uint256"
        },
        {
          "internalType": "bytes32[]",
          "name": "proof",
          "type": "bytes32[]"
        },
        {
          "internalType": "uint256",
          "name": "index",
          "type": "uint256"
        },
        {
          "internalType": "address",
          "name": "l2Sender",
          "type": "address"
        },
        {
          "internalType": "address",
          "name": "destAddr",
          "type": "address"
        },
        {
          "internalType": "uint256",
          "name": "l2Block",
          "type": "uint256"
        },
        {
          "internalType": "uint256",
          "name": "l1Block",
          "type": "uint256"
        },
        {
          "internalType": "uint256",
          "name": "l2Timestamp",
          "type": "uint256"
        },
        {
          "internalType": "uint256",
          "name": "amount",
          "type": "uint256"
        },
        {
          "internalType": "bytes",
          "name": "calldataForL1",
          "type": "bytes"
        }
      ],
      "name": "executeTransaction",
      "outputs": [],
      "stateMutability": "nonpayable",
      "type": "function"
    },
    {
      "inputs": [
        {
          "internalType": "address",
          "name": "_rollup",
          "type": "address"
        },
        {
          "internalType": "contract IBridge",
          "name": "_bridge",
          "type": "address"
        }
      ],
      "name": "initialize",
      "outputs": [],
      "stateMutability": "nonpayable",
      "type": "function"
    },
    {
      "inputs": [],
      "name": "isMaster",
      "outputs": [
        {
          "internalType": "bool",
          "name": "",
          "type": "bool"
        }
      ],
      "stateMutability": "view",
      "type": "function"
    },
    {
      "inputs": [],
      "name": "l2ToL1BatchNum",
      "outputs": [
        {
          "internalType": "uint256",
          "name": "",
          "type": "uint256"
        }
      ],
      "stateMutability": "view",
      "type": "function"
    },
    {
      "inputs": [],
      "name": "l2ToL1Block",
      "outputs": [
        {
          "internalType": "uint256",
          "name": "",
          "type": "uint256"
        }
      ],
      "stateMutability": "view",
      "type": "function"
    },
    {
      "inputs": [],
      "name": "l2ToL1EthBlock",
      "outputs": [
        {
          "internalType": "uint256",
          "name": "",
          "type": "uint256"
        }
      ],
      "stateMutability": "view",
      "type": "function"
    },
    {
      "inputs": [],
      "name": "l2ToL1OutputId",
      "outputs": [
        {
          "internalType": "bytes32",
          "name": "",
          "type": "bytes32"
        }
      ],
      "stateMutability": "view",
      "type": "function"
    },
    {
      "inputs": [],
      "name": "l2ToL1Sender",
      "outputs": [
        {
          "internalType": "address",
          "name": "",
          "type": "address"
        }
      ],
      "stateMutability": "view",
      "type": "function"
    },
    {
      "inputs": [],
      "name": "l2ToL1Timestamp",
      "outputs": [
        {
          "internalType": "uint256",
          "name": "",
          "type": "uint256"
        }
      ],
      "stateMutability": "view",
      "type": "function"
    },
    {
      "inputs": [
        {
          "internalType": "uint256",
          "name": "",
          "type": "uint256"
        }
      ],
      "name": "outboxEntries",
      "outputs": [
        {
          "internalType": "bytes32",
          "name": "root",
          "type": "bytes32"
        }
      ],
      "stateMutability": "view",
      "type": "function"
    },
    {
      "inputs": [
        {
          "internalType": "uint256",
          "name": "batchNum",
          "type": "uint256"
        }
      ],
      "name": "outboxEntryExists",
      "outputs": [
        {
          "internalType": "bool",
          "name": "",
          "type": "bool"
        }
      ],
      "stateMutability": "view",
      "type": "function"
    },
    {
      "inputs": [
        {
          "internalType": "bytes",
          "name": "sendsData",
          "type": "bytes"
        },
        {
          "internalType": "uint256[]",
          "name": "sendLengths",
          "type": "uint256[]"
        }
      ],
      "name": "processOutgoingMessages",
      "outputs": [],
      "stateMutability": "nonpayable",
      "type": "function"
    },
    {
      "inputs": [],
      "name": "rollup",
      "outputs": [
        {
          "internalType": "address",
          "name": "",
          "type": "address"
        }
      ],
      "stateMutability": "view",
      "type": "function"
    }
  ],
  "bytecode": "0x608060405234801561001057600080fd5b5060016000806101000a81548160ff021916908315150217905550611de38061003a6000396000f3fe608060405234801561001057600080fd5b506004361061010a5760003560e01c80638515bc6a116100a2578063b0f3053711610071578063b0f305371461066f578063c75184df1461068d578063cb23bcb5146106bd578063e78cea92146106f1578063f1fd3a39146107255761010a565b80638515bc6a146103cf5780639229bab6146103ed5780639c5cfe0b1461042f5780639f0c04bf1461057a5761010a565b8063485cc955116100de578063485cc955146102f95780636f791d291461035d57806372f2a8c71461037d57806380648b021461039b5761010a565b80627436d31461010f5780630c726847146101ef57806311985271146102bd57806346547790146102db575b600080fd5b6101d96004803603606081101561012557600080fd5b810190808035906020019064010000000081111561014257600080fd5b82018360208201111561015457600080fd5b8035906020019184602083028401116401000000008311171561017657600080fd5b919080806020026020016040519081016040528093929190818152602001838360200280828437600081840152601f19601f8201169050808301925050505050505091929192908035906020019092919080359060200190929190505050610769565b6040518082815260200191505060405180910390f35b6102bb6004803603604081101561020557600080fd5b810190808035906020019064010000000081111561022257600080fd5b82018360208201111561023457600080fd5b8035906020019184600183028401116401000000008311171561025657600080fd5b90919293919293908035906020019064010000000081111561027757600080fd5b82018360208201111561028957600080fd5b803590602001918460208302840111640100000000831117156102ab57600080fd5b90919293919293905050506107a5565b005b6102c561091a565b6040518082815260200191505060405180910390f35b6102e3610955565b6040518082815260200191505060405180910390f35b61035b6004803603604081101561030f57600080fd5b81019080803573ffffffffffffffffffffffffffffffffffffffff169060200190929190803573ffffffffffffffffffffffffffffffffffffffff169060200190929190505050610990565b005b610365610ada565b60405180821515815260200191505060405180910390f35b610385610af0565b6040518082815260200191505060405180910390f35b6103a3610afd565b604051808273ffffffffffffffffffffffffffffffffffffffff16815260200191505060405180910390f35b6103d7610b29565b6040518082815260200191505060405180910390f35b6104196004803603602081101561040357600080fd5b8101908080359060200190929190505050610b64565b6040518082815260200191505060405180910390f35b610578600480360361014081101561044657600080fd5b81019080803590602001909291908035906020019064010000000081111561046d57600080fd5b82018360208201111561047f57600080fd5b803590602001918460208302840111640100000000831117156104a157600080fd5b909192939192939080359060200190929190803573ffffffffffffffffffffffffffffffffffffffff169060200190929190803573ffffffffffffffffffffffffffffffffffffffff169060200190929190803590602001909291908035906020019092919080359060200190929190803590602001909291908035906020019064010000000081111561053457600080fd5b82018360208201111561054657600080fd5b8035906020019184600183028401116401000000008311171561056857600080fd5b9091929391929390505050610b82565b005b610659600480360360e081101561059057600080fd5b81019080803573ffffffffffffffffffffffffffffffffffffffff169060200190929190803573ffffffffffffffffffffffffffffffffffffffff169060200190929190803590602001909291908035906020019092919080359060200190929190803590602001909291908035906020019064010000000081111561061557600080fd5b82018360208201111561062757600080fd5b8035906020019184600183028401116401000000008311171561064957600080fd5b909192939192939050505061117b565b6040518082815260200191505060405180910390f35b610677611232565b6040518082815260200191505060405180910390f35b61069561126d565b60405180826fffffffffffffffffffffffffffffffff16815260200191505060405180910390f35b6106c5611272565b604051808273ffffffffffffffffffffffffffffffffffffffff16815260200191505060405180910390f35b6106f9611298565b604051808273ffffffffffffffffffffffffffffffffffffffff16815260200191505060405180910390f35b6107516004803603602081101561073b57600080fd5b81019080803590602001909291905050506112be565b60405180821515815260200191505060405180910390f35b600061079c84848460405160200180828152602001915050604051602081830303815290604052805190602001206112e4565b90509392505050565b600060019054906101000a900473ffffffffffffffffffffffffffffffffffffffff1673ffffffffffffffffffffffffffffffffffffffff163373ffffffffffffffffffffffffffffffffffffffff1614610868576040517f08c379a000000000000000000000000000000000000000000000000000000000815260040180806020018281038252600b8152602001807f4f4e4c595f524f4c4c555000000000000000000000000000000000000000000081525060200191505060405180910390fd5b60008282905090506000805b82811015610911576108ed8787849088888681811061088f57fe5b905060200201358601926108a593929190611d7a565b8080601f016020809104026020016040519081016040528093929190818152602001838380828437600081840152601f19601f820116905080830192505050505050506113d2565b8484828181106108f957fe5b90506020020135820191508080600101915050610874565b50505050505050565b6000600360010160109054906101000a90046fffffffffffffffffffffffffffffffff166fffffffffffffffffffffffffffffffff16905090565b6000600360000160009054906101000a90046fffffffffffffffffffffffffffffffff166fffffffffffffffffffffffffffffffff16905090565b600073ffffffffffffffffffffffffffffffffffffffff16600060019054906101000a900473ffffffffffffffffffffffffffffffffffffffff1673ffffffffffffffffffffffffffffffffffffffff1614610a54576040517f08c379a000000000000000000000000000000000000000000000000000000000815260040180806020018281038252600c8152602001807f414c52454144595f494e4954000000000000000000000000000000000000000081525060200191505060405180910390fd5b81600060016101000a81548173ffffffffffffffffffffffffffffffffffffffff021916908373ffffffffffffffffffffffffffffffffffffffff16021790555080600160006101000a81548173ffffffffffffffffffffffffffffffffffffffff021916908373ffffffffffffffffffffffffffffffffffffffff1602179055505050565b60008060009054906101000a900460ff16905090565b6000600360020154905090565b60006003800160009054906101000a900473ffffffffffffffffffffffffffffffffffffffff16905090565b6000600360000160109054906101000a90046fffffffffffffffffffffffffffffffff166fffffffffffffffffffffffffffffffff16905090565b60026020528060005260406000206000915090508060000154905081565b600080610b958a8a8a8a8a8a8a8a61117b565b9050610be48e8e8e80806020026020016040519081016040528093929190818152602001838360200280828437600081840152601f19601f820116905080830192505050505050508d846115fe565b91508d8a73ffffffffffffffffffffffffffffffffffffffff168a73ffffffffffffffffffffffffffffffffffffffff167f20af7f3bbfe38132b8900ae295cd9c8d1914be7052d061a511f3f728dab189648e6040518082815260200191505060405180910390a450610c55611ccd565b60036040518060c00160405290816000820160009054906101000a90046fffffffffffffffffffffffffffffffff166fffffffffffffffffffffffffffffffff166fffffffffffffffffffffffffffffffff1681526020016000820160109054906101000a90046fffffffffffffffffffffffffffffffff166fffffffffffffffffffffffffffffffff166fffffffffffffffffffffffffffffffff1681526020016001820160009054906101000a90046fffffffffffffffffffffffffffffffff166fffffffffffffffffffffffffffffffff166fffffffffffffffffffffffffffffffff1681526020016001820160109054906101000a90046fffffffffffffffffffffffffffffffff166fffffffffffffffffffffffffffffffff166fffffffffffffffffffffffffffffffff168152602001600282015481526020016003820160009054906101000a900473ffffffffffffffffffffffffffffffffffffffff1673ffffffffffffffffffffffffffffffffffffffff1673ffffffffffffffffffffffffffffffffffffffff168152505090506040518060c00160405280896fffffffffffffffffffffffffffffffff168152602001886fffffffffffffffffffffffffffffffff168152602001876fffffffffffffffffffffffffffffffff1681526020018f6fffffffffffffffffffffffffffffffff1681526020018381526020018b73ffffffffffffffffffffffffffffffffffffffff16815250600360008201518160000160006101000a8154816fffffffffffffffffffffffffffffffff02191690836fffffffffffffffffffffffffffffffff16021790555060208201518160000160106101000a8154816fffffffffffffffffffffffffffffffff02191690836fffffffffffffffffffffffffffffffff16021790555060408201518160010160006101000a8154816fffffffffffffffffffffffffffffffff02191690836fffffffffffffffffffffffffffffffff16021790555060608201518160010160106101000a8154816fffffffffffffffffffffffffffffffff02191690836fffffffffffffffffffffffffffffffff1602179055506080820151816002015560a08201518160030160006101000a81548173ffffffffffffffffffffffffffffffffffffffff021916908373ffffffffffffffffffffffffffffffffffffffff160217905550905050611018898686868080601f016020809104026020016040519081016040528093929190818152602001838380828437600081840152601f19601f82011690508083019250505050505050611913565b80600360008201518160000160006101000a8154816fffffffffffffffffffffffffffffffff02191690836fffffffffffffffffffffffffffffffff16021790555060208201518160000160106101000a8154816fffffffffffffffffffffffffffffffff02191690836fffffffffffffffffffffffffffffffff16021790555060408201518160010160006101000a8154816fffffffffffffffffffffffffffffffff02191690836fffffffffffffffffffffffffffffffff16021790555060608201518160010160106101000a8154816fffffffffffffffffffffffffffffffff02191690836fffffffffffffffffffffffffffffffff1602179055506080820151816002015560a08201518160030160006101000a81548173ffffffffffffffffffffffffffffffffffffffff021916908373ffffffffffffffffffffffffffffffffffffffff1602179055509050505050505050505050505050505050565b600060038960601b60601c73ffffffffffffffffffffffffffffffffffffffff168960601b60601c73ffffffffffffffffffffffffffffffffffffffff16898989898989604051602001808a60ff1660f81b815260010189815260200188815260200187815260200186815260200185815260200184815260200183838082843780830192505050995050505050505050505060405160208183030381529060405280519060200120905098975050505050505050565b6000600360010160009054906101000a90046fffffffffffffffffffffffffffffffff166fffffffffffffffffffffffffffffffff16905090565b600181565b600060019054906101000a900473ffffffffffffffffffffffffffffffffffffffff1681565b600160009054906101000a900473ffffffffffffffffffffffffffffffffffffffff1681565b60008060001b600260008481526020019081526020016000206000015414159050919050565b600080845190506101008111156112fa57600080fd5b600083905060005b828110156113c55760006002878161131657fe5b0614156113665786818151811061132957fe5b60200260200101518260405160200180838152602001828152602001925050506040516020818303038152906040528051906020012091506113ab565b8187828151811061137357fe5b602002602001015160405160200180838152602001828152602001925050506040516020818303038152906040528051906020012091505b600286816113b557fe5b0495508080600101915050611302565b5080925050509392505050565b600060f81b7effffffffffffffffffffffffffffffffffffffffffffffffffffffffffffff19168160008151811061140657fe5b602001015160f81c60f81b7effffffffffffffffffffffffffffffffffffffffffffffffffffffffffffff191614156115fb5760618151146114b0576040517f08c379a000000000000000000000000000000000000000000000000000000000815260040180806020018281038252600a8152602001807f4241445f4c454e4754480000000000000000000000000000000000000000000081525060200191505060405180910390fd5b60006114c6600183611bab90919063ffffffff16565b90506114d1816112be565b15611544576040517f08c379a00000000000000000000000000000000000000000000000000000000081526004018080602001828103825260148152602001807f454e5452595f414c52454144595f45584953545300000000000000000000000081525060200191505060405180910390fd5b600061155a602184611bab90919063ffffffff16565b90506000611572604185611c3c90919063ffffffff16565b905061157c611d64565b6040518060200160405280838152509050806002600086815260200190815260200160002060008201518160000155905050837fe5ccc8d7080a4904b2f4e42d91e8f06b13fe6cb2181ad1fe14644e856b44c13185848660405180848152602001838152602001828152602001935050505060405180910390a2505050505b50565b6000610100845110611678576040517f08c379a000000000000000000000000000000000000000000000000000000000815260040180806020018281038252600e8152602001807f50524f4f465f544f4f5f4c4f4e4700000000000000000000000000000000000081525060200191505060405180910390fd5b835160020a83106116f1576040517f08c379a00000000000000000000000000000000000000000000000000000000081526004018080602001828103825260108152602001807f504154485f4e4f545f4d494e494d414c0000000000000000000000000000000081525060200191505060405180910390fd5b60006116fe858585610769565b905060006002600088815260200190815260200160002090506000801b81600001541415611794576040517f08c379a000000000000000000000000000000000000000000000000000000000815260040180806020018281038252600f8152602001807f4e4f5f4f5554424f585f454e545259000000000000000000000000000000000081525060200191505060405180910390fd5b6000858751604051602001808381526020018281526020019250505060405160208183030381529060405280519060200120905081600101600082815260200190815260200160002060009054906101000a900460ff161561185e576040517f08c379a000000000000000000000000000000000000000000000000000000000815260040180806020018281038252600d8152602001807f414c52454144595f5350454e540000000000000000000000000000000000000081525060200191505060405180910390fd5b816000015483146118d7576040517f08c379a00000000000000000000000000000000000000000000000000000000081526004018080602001828103825260088152602001807f4241445f524f4f5400000000000000000000000000000000000000000000000081525060200191505060405180910390fd5b600182600101600083815260200190815260200160002060006101000a81548160ff021916908315150217905550809350505050949350505050565b60006060600160009054906101000a900473ffffffffffffffffffffffffffffffffffffffff1673ffffffffffffffffffffffffffffffffffffffff16639e5d4c498686866040518463ffffffff1660e01b8152600401808473ffffffffffffffffffffffffffffffffffffffff16815260200183815260200180602001828103825283818151815260200191508051906020019080838360005b838110156119c95780820151818401526020810190506119ae565b50505050905090810190601f1680156119f65780820380516001836020036101000a031916815260200191505b50945050505050600060405180830381600087803b158015611a1757600080fd5b505af1158015611a2b573d6000803e3d6000fd5b505050506040513d6000823e3d601f19601f820116820180604052506040811015611a5557600080fd5b810190808051906020019092919080516040519392919084640100000000821115611a7f57600080fd5b83820191506020820185811115611a9557600080fd5b8251866001820283011164010000000082111715611ab257600080fd5b8083526020830192505050908051906020019080838360005b83811015611ae6578082015181840152602081019050611acb565b50505050905090810190601f168015611b135780820380516001836020036101000a031916815260200191505b506040525050509150915081611ba457600081511115611b365780518082602001fd5b6040517f08c379a00000000000000000000000000000000000000000000000000000000081526004018080602001828103825260128152602001807f4252494447455f43414c4c5f4641494c4544000000000000000000000000000081525060200191505060405180910390fd5b5050505050565b60006020820183511015611c27576040517f08c379a00000000000000000000000000000000000000000000000000000000081526004018080602001828103825260128152602001807f52656164206f7574206f6620626f756e6473000000000000000000000000000081525060200191505060405180910390fd5b60008260208501015190508091505092915050565b60006020820183511015611cb8576040517f08c379a00000000000000000000000000000000000000000000000000000000081526004018080602001828103825260128152602001807f52656164206f7574206f6620626f756e6473000000000000000000000000000081525060200191505060405180910390fd5b60008260208501015190508091505092915050565b6040518060c0016040528060006fffffffffffffffffffffffffffffffff16815260200160006fffffffffffffffffffffffffffffffff16815260200160006fffffffffffffffffffffffffffffffff16815260200160006fffffffffffffffffffffffffffffffff16815260200160008019168152602001600073ffffffffffffffffffffffffffffffffffffffff1681525090565b6040518060200160405280600080191681525090565b60008085851115611d8a57600080fd5b83861115611d9757600080fd5b600185028301915084860390509450949250505056fea26469706673582212204b9f5f1334a54d996cf34bbf5ab254c4c234719d87a9284b43b3c226d55063e664736f6c634300060c0033",
  "linkReferences": {},
  "deployedLinkReferences": {}
}