{
  "_format": "hh-sol-artifact-1",
  "contractName": "Bridge",
  "sourceName": "arb-bridge-eth/contracts/bridge/Bridge.sol",
  "abi": [
    {
      "anonymous": false,
      "inputs": [
        {
          "indexed": true,
          "internalType": "address",
          "name": "outbox",
          "type": "address"
        },
        {
          "indexed": true,
          "internalType": "address",
          "name": "destAddr",
          "type": "address"
        },
        {
          "indexed": false,
          "internalType": "uint256",
          "name": "amount",
          "type": "uint256"
        },
        {
          "indexed": false,
          "internalType": "bytes",
          "name": "data",
          "type": "bytes"
        }
      ],
      "name": "BridgeCallTriggered",
      "type": "event"
    },
    {
      "anonymous": false,
      "inputs": [
        {
          "indexed": true,
          "internalType": "address",
          "name": "inbox",
          "type": "address"
        },
        {
          "indexed": false,
          "internalType": "bool",
          "name": "enabled",
          "type": "bool"
        }
      ],
      "name": "InboxToggle",
      "type": "event"
    },
    {
      "anonymous": false,
      "inputs": [
        {
          "indexed": true,
          "internalType": "uint256",
          "name": "messageIndex",
          "type": "uint256"
        },
        {
          "indexed": true,
          "internalType": "bytes32",
          "name": "beforeInboxAcc",
          "type": "bytes32"
        },
        {
          "indexed": false,
          "internalType": "address",
          "name": "inbox",
          "type": "address"
        },
        {
          "indexed": false,
          "internalType": "uint8",
          "name": "kind",
          "type": "uint8"
        },
        {
          "indexed": false,
          "internalType": "address",
          "name": "sender",
          "type": "address"
        },
        {
          "indexed": false,
          "internalType": "bytes32",
          "name": "messageDataHash",
          "type": "bytes32"
        }
      ],
      "name": "MessageDelivered",
      "type": "event"
    },
    {
      "anonymous": false,
      "inputs": [
        {
          "indexed": true,
          "internalType": "address",
          "name": "outbox",
          "type": "address"
        },
        {
          "indexed": false,
          "internalType": "bool",
          "name": "enabled",
          "type": "bool"
        }
      ],
      "name": "OutboxToggle",
      "type": "event"
    },
    {
      "anonymous": false,
      "inputs": [
        {
          "indexed": true,
          "internalType": "address",
          "name": "previousOwner",
          "type": "address"
        },
        {
          "indexed": true,
          "internalType": "address",
          "name": "newOwner",
          "type": "address"
        }
      ],
      "name": "OwnershipTransferred",
      "type": "event"
    },
    {
      "inputs": [],
      "name": "activeOutbox",
      "outputs": [
        {
          "internalType": "address",
          "name": "",
          "type": "address"
        }
      ],
      "stateMutability": "view",
      "type": "function"
    },
    {
      "inputs": [
        {
          "internalType": "uint256",
          "name": "",
          "type": "uint256"
        }
      ],
      "name": "allowedInboxList",
      "outputs": [
        {
          "internalType": "address",
          "name": "",
          "type": "address"
        }
      ],
      "stateMutability": "view",
      "type": "function"
    },
    {
      "inputs": [
        {
          "internalType": "address",
          "name": "inbox",
          "type": "address"
        }
      ],
      "name": "allowedInboxes",
      "outputs": [
        {
          "internalType": "bool",
          "name": "",
          "type": "bool"
        }
      ],
      "stateMutability": "view",
      "type": "function"
    },
    {
      "inputs": [
        {
          "internalType": "uint256",
          "name": "",
          "type": "uint256"
        }
      ],
      "name": "allowedOutboxList",
      "outputs": [
        {
          "internalType": "address",
          "name": "",
          "type": "address"
        }
      ],
      "stateMutability": "view",
      "type": "function"
    },
    {
      "inputs": [
        {
          "internalType": "address",
          "name": "outbox",
          "type": "address"
        }
      ],
      "name": "allowedOutboxes",
      "outputs": [
        {
          "internalType": "bool",
          "name": "",
          "type": "bool"
        }
      ],
      "stateMutability": "view",
      "type": "function"
    },
    {
      "inputs": [
        {
          "internalType": "uint8",
          "name": "kind",
          "type": "uint8"
        },
        {
          "internalType": "address",
          "name": "sender",
          "type": "address"
        },
        {
          "internalType": "bytes32",
          "name": "messageDataHash",
          "type": "bytes32"
        }
      ],
      "name": "deliverMessageToInbox",
      "outputs": [
        {
          "internalType": "uint256",
          "name": "",
          "type": "uint256"
        }
      ],
      "stateMutability": "payable",
      "type": "function"
    },
    {
      "inputs": [
        {
          "internalType": "address",
          "name": "destAddr",
          "type": "address"
        },
        {
          "internalType": "uint256",
          "name": "amount",
          "type": "uint256"
        },
        {
          "internalType": "bytes",
          "name": "data",
          "type": "bytes"
        }
      ],
      "name": "executeCall",
      "outputs": [
        {
          "internalType": "bool",
          "name": "success",
          "type": "bool"
        },
        {
          "internalType": "bytes",
          "name": "returnData",
          "type": "bytes"
        }
      ],
      "stateMutability": "nonpayable",
      "type": "function"
    },
    {
      "inputs": [
        {
          "internalType": "uint256",
          "name": "",
          "type": "uint256"
        }
      ],
      "name": "inboxAccs",
      "outputs": [
        {
          "internalType": "bytes32",
          "name": "",
          "type": "bytes32"
        }
      ],
      "stateMutability": "view",
      "type": "function"
    },
    {
      "inputs": [],
      "name": "initialize",
      "outputs": [],
      "stateMutability": "nonpayable",
      "type": "function"
    },
    {
      "inputs": [],
      "name": "messageCount",
      "outputs": [
        {
          "internalType": "uint256",
          "name": "",
          "type": "uint256"
        }
      ],
      "stateMutability": "view",
      "type": "function"
    },
    {
      "inputs": [],
      "name": "owner",
      "outputs": [
        {
          "internalType": "address",
          "name": "",
          "type": "address"
        }
      ],
      "stateMutability": "view",
      "type": "function"
    },
    {
      "inputs": [],
      "name": "renounceOwnership",
      "outputs": [],
      "stateMutability": "nonpayable",
      "type": "function"
    },
    {
      "inputs": [
        {
          "internalType": "address",
          "name": "inbox",
          "type": "address"
        },
        {
          "internalType": "bool",
          "name": "enabled",
          "type": "bool"
        }
      ],
      "name": "setInbox",
      "outputs": [],
      "stateMutability": "nonpayable",
      "type": "function"
    },
    {
      "inputs": [
        {
          "internalType": "address",
          "name": "outbox",
          "type": "address"
        },
        {
          "internalType": "bool",
          "name": "enabled",
          "type": "bool"
        }
      ],
      "name": "setOutbox",
      "outputs": [],
      "stateMutability": "nonpayable",
      "type": "function"
    },
    {
      "inputs": [
        {
          "internalType": "address",
          "name": "newOwner",
          "type": "address"
        }
      ],
      "name": "transferOwnership",
      "outputs": [],
      "stateMutability": "nonpayable",
      "type": "function"
    }
  ],
  "bytecode": "0x608060405234801561001057600080fd5b50611f36806100206000396000f3fe6080604052600436106100e85760003560e01c8063945e11471161008a578063cee3d72811610059578063cee3d72814610501578063d9dd67ab1461055e578063e45b7ce6146105ad578063f2fde38b1461060a576100e8565b8063945e1147146102c25780639e5d4c4914610327578063ab5d894314610459578063c29372de1461049a576100e8565b8063715018a6116100c6578063715018a6146101ee5780637ee94329146102055780638129fc1c1461026a5780638da5cb5b14610281576100e8565b806302bbfad1146100ed5780633dbcc8d11461015c578063413b35bd14610187575b600080fd5b6101466004803603606081101561010357600080fd5b81019080803560ff169060200190929190803573ffffffffffffffffffffffffffffffffffffffff1690602001909291908035906020019092919050505061065b565b6040518082815260200191505060405180910390f35b34801561016857600080fd5b50610171610736565b6040518082815260200191505060405180910390f35b34801561019357600080fd5b506101d6600480360360208110156101aa57600080fd5b81019080803573ffffffffffffffffffffffffffffffffffffffff169060200190929190505050610743565b60405180821515815260200191505060405180910390f35b3480156101fa57600080fd5b5061020361079c565b005b34801561021157600080fd5b5061023e6004803603602081101561022857600080fd5b810190808035906020019092919050505061090c565b604051808273ffffffffffffffffffffffffffffffffffffffff16815260200191505060405180910390f35b34801561027657600080fd5b5061027f610948565b005b34801561028d57600080fd5b50610296610a4e565b604051808273ffffffffffffffffffffffffffffffffffffffff16815260200191505060405180910390f35b3480156102ce57600080fd5b506102fb600480360360208110156102e557600080fd5b8101908080359060200190929190505050610a78565b604051808273ffffffffffffffffffffffffffffffffffffffff16815260200191505060405180910390f35b34801561033357600080fd5b506103d56004803603606081101561034a57600080fd5b81019080803573ffffffffffffffffffffffffffffffffffffffff169060200190929190803590602001909291908035906020019064010000000081111561039157600080fd5b8201836020820111156103a357600080fd5b803590602001918460018302840111640100000000831117156103c557600080fd5b9091929391929390505050610ab4565b60405180831515815260200180602001828103825283818151815260200191508051906020019080838360005b8381101561041d578082015181840152602081019050610402565b50505050905090810190601f16801561044a5780820380516001836020036101000a031916815260200191505b50935050505060405180910390f35b34801561046557600080fd5b5061046e610dde565b604051808273ffffffffffffffffffffffffffffffffffffffff16815260200191505060405180910390f35b3480156104a657600080fd5b506104e9600480360360208110156104bd57600080fd5b81019080803573ffffffffffffffffffffffffffffffffffffffff169060200190929190505050610e04565b60405180821515815260200191505060405180910390f35b34801561050d57600080fd5b5061055c6004803603604081101561052457600080fd5b81019080803573ffffffffffffffffffffffffffffffffffffffff169060200190929190803515159060200190929190505050610e5d565b005b34801561056a57600080fd5b506105976004803603602081101561058157600080fd5b810190808035906020019092919050505061129a565b6040518082815260200191505060405180910390f35b3480156105b957600080fd5b50610608600480360360408110156105d057600080fd5b81019080803573ffffffffffffffffffffffffffffffffffffffff1690602001909291908035151590602001909291905050506112bb565b005b34801561061657600080fd5b506106596004803603602081101561062d57600080fd5b81019080803573ffffffffffffffffffffffffffffffffffffffff1690602001909291905050506116f8565b005b6000606560003373ffffffffffffffffffffffffffffffffffffffff1673ffffffffffffffffffffffffffffffffffffffff16815260200190815260200160002060010160009054906101000a900460ff1661071f576040517f08c379a000000000000000000000000000000000000000000000000000000000815260040180806020018281038252600e8152602001807f4e4f545f46524f4d5f494e424f5800000000000000000000000000000000000081525060200191505060405180910390fd5b61072d848443423a876118ed565b90509392505050565b6000606a80549050905090565b6000606660008373ffffffffffffffffffffffffffffffffffffffff1673ffffffffffffffffffffffffffffffffffffffff16815260200190815260200160002060010160009054906101000a900460ff169050919050565b6107a46119fc565b73ffffffffffffffffffffffffffffffffffffffff166107c2610a4e565b73ffffffffffffffffffffffffffffffffffffffff161461084b576040517f08c379a00000000000000000000000000000000000000000000000000000000081526004018080602001828103825260208152602001807f4f776e61626c653a2063616c6c6572206973206e6f7420746865206f776e657281525060200191505060405180910390fd5b600073ffffffffffffffffffffffffffffffffffffffff16603360009054906101000a900473ffffffffffffffffffffffffffffffffffffffff1673ffffffffffffffffffffffffffffffffffffffff167f8be0079c531659141344cd1fd0a4f28419497f9722a3daafe3b4186f6b6457e060405160405180910390a36000603360006101000a81548173ffffffffffffffffffffffffffffffffffffffff021916908373ffffffffffffffffffffffffffffffffffffffff160217905550565b6067818154811061091957fe5b906000526020600020016000915054906101000a900473ffffffffffffffffffffffffffffffffffffffff1681565b600060019054906101000a900460ff16806109675750610966611a04565b5b8061097d575060008054906101000a900460ff16155b6109d2576040517f08c379a000000000000000000000000000000000000000000000000000000000815260040180806020018281038252602e815260200180611ed3602e913960400191505060405180910390fd5b60008060019054906101000a900460ff161590508015610a22576001600060016101000a81548160ff02191690831515021790555060016000806101000a81548160ff0219169083151502179055505b610a2a611a15565b8015610a4b5760008060016101000a81548160ff0219169083151502179055505b50565b6000603360009054906101000a900473ffffffffffffffffffffffffffffffffffffffff16905090565b60688181548110610a8557fe5b906000526020600020016000915054906101000a900473ffffffffffffffffffffffffffffffffffffffff1681565b60006060606660003373ffffffffffffffffffffffffffffffffffffffff1673ffffffffffffffffffffffffffffffffffffffff16815260200190815260200160002060010160009054906101000a900460ff16610b7a576040517f08c379a000000000000000000000000000000000000000000000000000000000815260040180806020018281038252600f8152602001807f4e4f545f46524f4d5f4f5554424f58000000000000000000000000000000000081525060200191505060405180910390fd5b6000848490501115610c1857610ba58673ffffffffffffffffffffffffffffffffffffffff16611b23565b610c17576040517f08c379a000000000000000000000000000000000000000000000000000000000815260040180806020018281038252600f8152602001807f4e4f5f434f44455f41545f44455354000000000000000000000000000000000081525060200191505060405180910390fd5b5b6000606960009054906101000a900473ffffffffffffffffffffffffffffffffffffffff16905033606960006101000a81548173ffffffffffffffffffffffffffffffffffffffff021916908373ffffffffffffffffffffffffffffffffffffffff1602179055508673ffffffffffffffffffffffffffffffffffffffff1686868660405180838380828437808301925050509250505060006040518083038185875af1925050503d8060008114610cec576040519150601f19603f3d011682016040523d82523d6000602084013e610cf1565b606091505b50809350819450505080606960006101000a81548173ffffffffffffffffffffffffffffffffffffffff021916908373ffffffffffffffffffffffffffffffffffffffff1602179055508673ffffffffffffffffffffffffffffffffffffffff163373ffffffffffffffffffffffffffffffffffffffff167f2d9d115ef3e4a606d698913b1eae831a3cdfe20d9a83d48007b0526749c3d46688888860405180848152602001806020018281038252848482818152602001925080828437600081840152601f19601f82011690508083019250505094505050505060405180910390a35094509492505050565b606960009054906101000a900473ffffffffffffffffffffffffffffffffffffffff1681565b6000606560008373ffffffffffffffffffffffffffffffffffffffff1673ffffffffffffffffffffffffffffffffffffffff16815260200190815260200160002060010160009054906101000a900460ff169050919050565b610e656119fc565b73ffffffffffffffffffffffffffffffffffffffff16610e83610a4e565b73ffffffffffffffffffffffffffffffffffffffff1614610f0c576040517f08c379a00000000000000000000000000000000000000000000000000000000081526004018080602001828103825260208152602001807f4f776e61626c653a2063616c6c6572206973206e6f7420746865206f776e657281525060200191505060405180910390fd5b6000606660008473ffffffffffffffffffffffffffffffffffffffff1673ffffffffffffffffffffffffffffffffffffffff168152602001908152602001600020905060008160010160009054906101000a900460ff1690508373ffffffffffffffffffffffffffffffffffffffff167f49477e7356dbcb654ab85d7534b50126772d938130d1350e23e2540370c8dffa8460405180821515815260200191505060405180910390a2808015610fbf5750825b80610fd2575080158015610fd1575082155b5b15610fde575050611296565b82156110d5576040518060400160405280606880549050815260200160011515815250606660008673ffffffffffffffffffffffffffffffffffffffff1673ffffffffffffffffffffffffffffffffffffffff1681526020019081526020016000206000820151816000015560208201518160010160006101000a81548160ff0219169083151502179055509050506068849080600181540180825580915050600190039060005260206000200160009091909190916101000a81548173ffffffffffffffffffffffffffffffffffffffff021916908373ffffffffffffffffffffffffffffffffffffffff160217905550611293565b6068600160688054905003815481106110ea57fe5b9060005260206000200160009054906101000a900473ffffffffffffffffffffffffffffffffffffffff16606883600001548154811061112657fe5b9060005260206000200160006101000a81548173ffffffffffffffffffffffffffffffffffffffff021916908373ffffffffffffffffffffffffffffffffffffffff160217905550816000015460666000606885600001548154811061118857fe5b9060005260206000200160009054906101000a900473ffffffffffffffffffffffffffffffffffffffff1673ffffffffffffffffffffffffffffffffffffffff1673ffffffffffffffffffffffffffffffffffffffff1681526020019081526020016000206000018190555060688054806111ff57fe5b6001900381819060005260206000200160006101000a81549073ffffffffffffffffffffffffffffffffffffffff02191690559055606660008573ffffffffffffffffffffffffffffffffffffffff1673ffffffffffffffffffffffffffffffffffffffff1681526020019081526020016000206000808201600090556001820160006101000a81549060ff021916905550505b50505b5050565b606a81815481106112a757fe5b906000526020600020016000915090505481565b6112c36119fc565b73ffffffffffffffffffffffffffffffffffffffff166112e1610a4e565b73ffffffffffffffffffffffffffffffffffffffff161461136a576040517f08c379a00000000000000000000000000000000000000000000000000000000081526004018080602001828103825260208152602001807f4f776e61626c653a2063616c6c6572206973206e6f7420746865206f776e657281525060200191505060405180910390fd5b6000606560008473ffffffffffffffffffffffffffffffffffffffff1673ffffffffffffffffffffffffffffffffffffffff168152602001908152602001600020905060008160010160009054906101000a900460ff1690508373ffffffffffffffffffffffffffffffffffffffff167f6675ce8882cb71637de5903a193d218cc0544be9c0650cb83e0955f6aa2bf5218460405180821515815260200191505060405180910390a280801561141d5750825b8061143057508015801561142f575082155b5b1561143c5750506116f4565b8215611533576040518060400160405280606780549050815260200160011515815250606560008673ffffffffffffffffffffffffffffffffffffffff1673ffffffffffffffffffffffffffffffffffffffff1681526020019081526020016000206000820151816000015560208201518160010160006101000a81548160ff0219169083151502179055509050506067849080600181540180825580915050600190039060005260206000200160009091909190916101000a81548173ffffffffffffffffffffffffffffffffffffffff021916908373ffffffffffffffffffffffffffffffffffffffff1602179055506116f1565b60676001606780549050038154811061154857fe5b9060005260206000200160009054906101000a900473ffffffffffffffffffffffffffffffffffffffff16606783600001548154811061158457fe5b9060005260206000200160006101000a81548173ffffffffffffffffffffffffffffffffffffffff021916908373ffffffffffffffffffffffffffffffffffffffff16021790555081600001546065600060678560000154815481106115e657fe5b9060005260206000200160009054906101000a900473ffffffffffffffffffffffffffffffffffffffff1673ffffffffffffffffffffffffffffffffffffffff1673ffffffffffffffffffffffffffffffffffffffff16815260200190815260200160002060000181905550606780548061165d57fe5b6001900381819060005260206000200160006101000a81549073ffffffffffffffffffffffffffffffffffffffff02191690559055606560008573ffffffffffffffffffffffffffffffffffffffff1673ffffffffffffffffffffffffffffffffffffffff1681526020019081526020016000206000808201600090556001820160006101000a81549060ff021916905550505b50505b5050565b6117006119fc565b73ffffffffffffffffffffffffffffffffffffffff1661171e610a4e565b73ffffffffffffffffffffffffffffffffffffffff16146117a7576040517f08c379a00000000000000000000000000000000000000000000000000000000081526004018080602001828103825260208152602001807f4f776e61626c653a2063616c6c6572206973206e6f7420746865206f776e657281525060200191505060405180910390fd5b600073ffffffffffffffffffffffffffffffffffffffff168173ffffffffffffffffffffffffffffffffffffffff16141561182d576040517f08c379a0000000000000000000000000000000000000000000000000000000008152600401808060200182810382526026815260200180611ead6026913960400191505060405180910390fd5b8073ffffffffffffffffffffffffffffffffffffffff16603360009054906101000a900473ffffffffffffffffffffffffffffffffffffffff1673ffffffffffffffffffffffffffffffffffffffff167f8be0079c531659141344cd1fd0a4f28419497f9722a3daafe3b4186f6b6457e060405160405180910390a380603360006101000a81548173ffffffffffffffffffffffffffffffffffffffff021916908373ffffffffffffffffffffffffffffffffffffffff16021790555050565b600080606a805490509050600061190989898989868a8a611b36565b905060008060001b9050600083111561193a57606a600184038154811061192c57fe5b906000526020600020015490505b606a6119468284611bbb565b908060018154018082558091505060019003906000526020600020016000909190919091505580837f23be8e12e420b5da9fb98d8102572f640fb3c11a0085060472dfc0ed194b3cf7338d8d8a604051808573ffffffffffffffffffffffffffffffffffffffff1681526020018460ff1681526020018373ffffffffffffffffffffffffffffffffffffffff16815260200182815260200194505050505060405180910390a38293505050509695505050505050565b600033905090565b6000611a0f30611bf4565b15905090565b600060019054906101000a900460ff1680611a345750611a33611a04565b5b80611a4a575060008054906101000a900460ff16155b611a9f576040517f08c379a000000000000000000000000000000000000000000000000000000000815260040180806020018281038252602e815260200180611ed3602e913960400191505060405180910390fd5b60008060019054906101000a900460ff161590508015611aef576001600060016101000a81548160ff02191690831515021790555060016000806101000a81548160ff0219169083151502179055505b611af7611c07565b611aff611d05565b8015611b205760008060016101000a81548160ff0219169083151502179055505b50565b600080823b905060008111915050919050565b600087878787878787604051602001808860ff1660f81b81526001018773ffffffffffffffffffffffffffffffffffffffff1660601b8152601401868152602001858152602001848152602001838152602001828152602001975050505050505050604051602081830303815290604052805190602001209050979650505050505050565b60008282604051602001808381526020018281526020019250505060405160208183030381529060405280519060200120905092915050565b600080823b905060008111915050919050565b600060019054906101000a900460ff1680611c265750611c25611a04565b5b80611c3c575060008054906101000a900460ff16155b611c91576040517f08c379a000000000000000000000000000000000000000000000000000000000815260040180806020018281038252602e815260200180611ed3602e913960400191505060405180910390fd5b60008060019054906101000a900460ff161590508015611ce1576001600060016101000a81548160ff02191690831515021790555060016000806101000a81548160ff0219169083151502179055505b8015611d025760008060016101000a81548160ff0219169083151502179055505b50565b600060019054906101000a900460ff1680611d245750611d23611a04565b5b80611d3a575060008054906101000a900460ff16155b611d8f576040517f08c379a000000000000000000000000000000000000000000000000000000000815260040180806020018281038252602e815260200180611ed3602e913960400191505060405180910390fd5b60008060019054906101000a900460ff161590508015611ddf576001600060016101000a81548160ff02191690831515021790555060016000806101000a81548160ff0219169083151502179055505b6000611de96119fc565b905080603360006101000a81548173ffffffffffffffffffffffffffffffffffffffff021916908373ffffffffffffffffffffffffffffffffffffffff1602179055508073ffffffffffffffffffffffffffffffffffffffff16600073ffffffffffffffffffffffffffffffffffffffff167f8be0079c531659141344cd1fd0a4f28419497f9722a3daafe3b4186f6b6457e060405160405180910390a3508015611ea95760008060016101000a81548160ff0219169083151502179055505b5056fe4f776e61626c653a206e6577206f776e657220697320746865207a65726f2061646472657373496e697469616c697a61626c653a20636f6e747261637420697320616c726561647920696e697469616c697a6564a264697066735822122041d5659adbaa6b23b17f49d98bf830602fc431f0942bd4d43aa79ec1a8d3a32264736f6c634300060c0033",
  "linkReferences": {},
  "deployedLinkReferences": {}
}